:0400000000EFB0F06D
:100008009D619D619D619D614000D35C40009D6143
:100018009D619D619D619D619D619D619D619D61E8
:100028009D614000400040009D619D619D619D6112
:100038009D619D619D619D619D619D619D619D61C8
:100048009D619D619D619D61400040009D619D6134
:100058009D619D619D6140009D619D619D619D6166
:100068009D611A5E9D619D619D619D619D619D611E
:100078009D619D619D619D6140009D619D619D6146
:100088009D619D619D619D619D619D619D619D6178
:100098009D619D619D619D6140009D6140004000A2
:1000A8009D6193619D619D619D619D619D619D6162
:1000B8009D619D619D619D619D619D619D619D6148
:1000C8009D619D619D619D619D619D619D619D6138
:1000D8009D619D619D619D619D619D619D619D6128
:1000E80040009D619D619D614000400040004000CE
:0A00F8009D619D619D619D61FF0007
:10260000001D306D79335B5F707F7B771F4E3D4FD0
:102610004750574D32202D3E20524234202D3E202F
:10262000504849322077696474682025332E30661B
:10263000206E7365630D0A0D0A0050574D31202D31
:102640003E20524235202D3E2050484931207769A6
:102650006474682025332E3066206E7365630D0A1E
:10266000000D0A454D553830303820636C6F636B70
:102670002073706565642025332E30666B487A0DB3
:0B2680000A00696E66006E616E0000CB
:020000040001F9
:1000000044002053FFFFFFFF443626FFFFFFFFFFA2
:10001000441D26FFFFFFFFFFFFFFFFFFFFFFFFFF66
:10002000FFFFFFFFFFFFFFFFFFFFFFFFFFFFFFFFE0
:10003000FFFFFFFFFFFFFFFFFFFFFFFF440320FF66
:10004000FF0080FFFFFFFFFF4E673E017F1D1D7F0A
:100050000707070707070707443C0053FFFFFFFF99
:1000600044110146220246330346440446550546E0
:10007000660646770746340053FFFFFFFFFFFFFF8A
:10008000FFFFFFFFFFFFFFFFFFFFFFFFFFFFFFFF80
:10009000FFFFFFFFFFFFFFFFFFFFFFFFFFFFFFFF70
:1000A000FFFFFFFFFFFFFFFFFFFFFFFFFFFFFFFF60
:1000B000FFFFFFFFFFFFFFFFFFFFFFFFFFFFFFFF50
:10200000443B20574706001A6818200E185012202B
:102010000E787817203404B1592E203632460F2618
:102020002E003681C746CF2531C7140146CF25443F
:102030004F2048616C7420617420002E1E36F63EDD
:10204000002E26364C460F262E2636C2460F262E4A
:1020500027369B460F26461D263C3A6840223C1BED
:10206000486D202E1E36F6CF08F94456203C3F48D6
:1020700088202E1E36F6C73E003C024848202E29F6
:10208000368F460F26444F202E1E36F63E003C610A
:1020900060952014204636263C4268F8213C43686F
:1020A000EA223C4468DC203C45688D213C46684D72
:1020B000213C4768BB223C48682A223C49680F23E0
:1020C0003C4A68CB223C4F6845233C536880233C04
:1020D0000D684820063F463626444F202E27369F5F
:1020E000460F2646A323604F202E2836A4460F26EF
:1020F0002E1E36F0CF30C724F0F0E9460526C5463F
:10210000CF25C646CF25460A26411A604F20C7462E
:10211000CF25460A2630C6240F681F2144092146D0
:102120000A26411A604F20C61410F0C73C206036C2
:10213000213C80603821062E463626411A604F2009
:1021400030684F20C6240F68FB20442B212E2736F1
:10215000BA460F2646A323604F2046B923604F207E
:102160002E283691460F26465D252E1E36F2CF309C
:10217000D72E1E36F0DF30E7EBF4F8304880212808
:10218000469B23D8C2B1C3487A21444F202E27361C
:10219000AB460F2646A323604F204605262E1E364B
:1021A000F0DF30E7EBF4460526C546CF25C646CF1F
:1021B0002546CF232E29364F460F2646D923C7461C
:1021C000CF2546CF232E293655460F2646D92346FE
:1021D0005D2560DE21F83048A6212844A6213C2058
:1021E00048EB213048A6212844A6213C0D684F2009
:1021F0003C1B684F2044CF212E28363B460F2646F5
:10220000A323604F202E2836DB460F262E1E36F0E5
:10221000DF30E7EBF4461D26F830481E2228461D25
:1022200026F830481E2228441E222E283658460FF3
:10223000262E293603460F264625263C3A483822C4
:1022400046A4223C00687E22D8C846A422E881C861
:1022500046A422F081C846A4223C01687E22D08197
:10226000C8C246A422F881C830486D222819687473
:102270002244622246A42281489C2244382246A459
:1022800022E846A422F046CF2346A42246A4222ECA
:1022900029362E460F2646D92344D8222E29363DEC
:1022A000460F260046252646F0250202020224F0AB
:1022B000D046252646F025240FB2072E2736FC46A9
:1022C0000F2646C624604F2044D8222E2736C64605
:1022D0000F2646C624604F20DDE62E1E36FC3E4407
:1022E00030FC30FB46052644FC1E2E2736E0460F08
:1022F0002646C624604F20DDE62E1E36FC3E4630C4
:10230000FC30FB303E0746052646FC1E444F202E7F
:10231000283614460F262E29365D460F26465D25A3
:10232000604F2024070234412E1E36FCF8303E0751
:1023300046FC1ED82E29364F460F26C346CF2546CB
:102340000526444F202E283628460F262E29365D96
:10235000460F26465D25604F20D82E293676460F3B
:1023600026465D25604F20E0C3241F0234412E1E07
:1023700036FCF8303E07C446FC1E460526444F2076
:102380002E283650460F262E1E36FC3E55303E4433
:10239000303E00303E20062044FC1E111048A12390
:1023A0000911072E28366A460F2646C62423CDD6A5
:1023B0002E1E36F0F930FA31072E28367E460F26CB
:1023C00046C62423CDD62E1E36F2F930FA3107DD6B
:1023D000E62E1E36F0FB30FC072E1E36F0DF30E70F
:1023E00030EBF4072E1E36F2F930FA072E1E36F2C5
:1023F000CF30D730072E1E36F4FB30FC072E1E36AA
:10240000F4DF30E730072E003600461D263C0D482D
:102410001424A0073C1B481D2406010A073C306019
:102420000A243C3A400A244636261430C8DDE6C663
:1024300086F0C58DE8C686F0C58DE8C684F0C58BEC
:10244000E8C686F0C58DE8C681F0C51E008BE8445D
:102450000A2426001E64162F109340582483C8C2F5
:102460003C31406B24C4B0C268702446362626FF37
:10247000C3145AD8C14056240430463626070E00ED
:102480001E27261046A2241E0326E846A2241E006C
:10249000266446A2241E00260A46A224C60430440E
:1024A0003626162F10C694F0C59BE840A424C68497
:1024B000F0C58BE8C23C3140C124C1B0C22B4436C8
:1024C000260EFF44362646932540DB243C1B48C697
:1024D0002406010A061B2E0036000746F0250202DC
:1024E000020224F0F04693254001253C1B68D124CC
:1024F0003C0D48E524C60A0A0A0A240FF02E009073
:102500000746F025240FB6F0469325401B253C1BBB
:1025100068D1243C0D48082544FD2446F0250202DC
:10252000020224F0E84693254052253C1B68D12442
:102530003C0D482525C50A0A0A0A240FE8CDD6C64F
:102540000202020224F0B5F0C20A0A0A0A240FE8C5
:10255000900746F025240FB5D6F0EA90074693255C
:10256000608D2546F0250202020224F0D046932514
:102570004083253C0D488D25C20A0A0A0A240FC84B
:10258000448A2546F025240FB2C890C107C8060129
:102590000AC107461D26247F3C0D68C9253C1B68DF
:1025A000C9253C2068C9253C306093253C6160B357
:1025B0002514203C474093253C3A60C2253C4160AD
:1025C0009325C846362690C107C806010AC107D818
:1025D0000A0A0A0A46E225463626C346E225463658
:1025E0002607240FE0140AC460ED25040704300711
:1025F0003C6160F72514201430E0140A600326C4FF
:102600001407E0C407060D4636260620443626C7C2
:10261000A02B46362630480F2628440F2641240199
:10262000681D26430741240168252643E041240212
:10263000682D26C46107E0412402683726C4613C46
:102640000D0B260A44372620484726070D5365728E
:1026500069616C204D6F6E69746F7220666F7220B5
:10266000496E74656C203830303820534243205610
:10267000322E300D4D6F64696669656420666F7235
:1026800020454D55383030382062792047617A65D1
:102690006C6C650D5265762E20312E3030204173E2
:1026A00073656D626C6564206F6E20382F31312F39
:1026B000323032352061742031383A33353A32368F
:1026C0000D000D42202D2042696E617279206669ED
:1026D0006C6520646F776E6C6F61640D43202D20F4
:1026E00043616C6C20737562726F7574696E650DF1
:1026F00044202D2044756D702052414D0D45202DF4
:10270000204578616D696E652F4D6F64696679202B
:1027100052414D0D46202D2046696C6C2052414D92
:102720000D48202D204865782066696C6520646F0F
:10273000776E6C6F61640D47202D20476F20746F9A
:1027400020616464726573730D49202D20496E7099
:10275000757420627974652066726F6D20706F7277
:10276000740D4A202D204A756D7020746F206164AD
:1027700064726573730D4F202D204F7574707574DE
:10278000206279746520746F20706F72740D53200D
:102790002D205343454C42414C0D000D3E3E0075EB
:1027A0006D70206D656D6F72790D0078616D696E69
:1027B00065206D656D6F72790D00696C6C206D65BB
:1027C0006D6F72790D00756D7020746F2061646497
:1027D000726573733A2028696E2068657829200035
:1027E000616C6C20737562726F7574696E652061BF
:1027F0007420616464726573733A20006F20746F93
:1028000020616464726573733A2028696E2068657C
:10281000782920006E707574206279746520667264
:102820006F6D20706F7274007574707574206279AA
:10283000746520746F20706F727400696E617279B4
:102840002066696C6520646F776E6C6F61640D0043
:1028500043454C42414C0D0065782066696C65200B
:10286000646F776E6C6F61640D000D416464726516
:1028700073733A2028696E2068657829200020202B
:10288000436F756E743A2028696E20686578292038
:1028900000202056616C75653A2028696E206865B5
:1028A000782920000D2020202020203030203031B9
:1028B0002030322030332030342030352030362064
:1028C000303720303820303920304120304220301D
:1028D00043203044203045203046000D5761697454
:1028E000696E6720666F72207468652062696E6128
:1028F00072792066696C6520646F776E6C6F6164B5
:102900002E0D000D57616974696E6720666F722025
:1029100074686520496E74656C2068657820666906
:102920006C6520646F776E6C6F61642E0D000D46D0
:10293000696C65206C6F616465642E0D000D4368E1
:1029400065636B73756D206572726F72210D002067
:102950002D2D3E200020204E65773A20000D506F2F
:10296000727420616464726573733A2028696E2002
:102970006865782920000D4F757470757420627930
:1029800074653A202028696E206865782920000D3A
:10299000496E74656C203830303820534243204DE6
:1029A0006F6E69746F7220A920436F7079726967C6
:1029B00068742032303232206279204A696D204CAE
:1029C0006F6F730D000D4550524F4D206368656366
:1029D0006B73756D206572726F72210D00000000BF
:1029E00000000000000000000000000000000000E7
:1029F00000000000000000000000000000000000D7
:102A000000000000000000000000000000000000C6
:102A100000000000000000000000000000000000B6
:104000004481207C466173746572205343454C4261
:10401000414C202832303132290D0A436F6465202B
:1040200052656C6F636174696F6E2C20494F20611B
:104030006E6420737461727420757020636F6465A0
:104040002062792047617A656C6C652032303235A8
:104050000D0A5265762E20312E3130204173736562
:104060006D626C6564206F6E20382F31312F3230D5
:1040700032352061742031383A34363A31370D0AFE
:10408000002E203603466D221E3D26023600EBC769
:10409000ECF830488E201E3E26033600EBC7ECF8C5
:1040A00030489C201E3F26043600EBC7ECF8304811
:1040B000AA204426287F44D2272E1E36FC3E5530A7
:1040C0003E44303E00303E20060044FC1E412401A8
:1040D00068CD20433C0868DD206134800706FF0777
:1040E0003CDC680021247F3C0D68F6203C0A68F621
:1040F000203C2060FF20E841240268F720C56107CA
:104100004124026800210608614124026809210651
:1041100020614124026812210608610746C9213640
:10412000E02E033E0036813E01368146BC216840C8
:10413000213CB0704D213CBA504D2136E046E8217B
:104140003681461F2248292136833E00073681CF1B
:104150003682F9368246BC216870213CBD68A421B4
:104160003CA868A92146E4213682461F22485321F3
:1041700036833E012E0436001E03265046F6212BC0
:1041800046F53130C724C048832146F53136832EA9
:1041900003CF08F946F531C13C0D4878212E16367B
:1041A000833EFF0736833E0D0736833E0E0706C269
:1041B00016C7469E22C2469E2244D729C73C50506D
:1041C000AE21F02E03C73CA00736502E033E000759
:1041D0003CC170DA213CDB70E4213CB070F3213C3F
:1041E000BA50F32136502E03D710FAC8462532F9BB
:1041F000060007448628C746F531CFB90B46F5318E
:10420000461B22C746F531461B22BF0B46F5310936
:1042100048002207C746F531440A22300B2807CF51
:1042200008F93600C709B907160046AD223CFF4819
:1042300041221170282246902206DC469E22442A02
:10424000223C8368D0293C8D685E223C8A682A2201
:10425000461B2210F8C23C5050AE21442A22CA46C6
:104260006722FA467D2207C691F0032907D7C7A027
:104270002B461B22C7469E221148712207068D46F7
:104280009E22068A469E2236232E023E01EBF4072A
:104290003130489622293107C681F0032807DDE630
:1042A00036232E02CF08F946E020EBF40744CD2058
:1042B00036972E023E94302E033E0046C9213688A2
:1042C0003E0036BECF3680F9368046BC2168DD23FD
:1042D0003CAB48DC22367E3E014405233CAD480B16
:1042E000233650C7A0480123367EC73C0768012308
:1042F0003C036886283C0568862836503E01303EDF
:10430000B0367E3E0246F02344DD233CAA48172304
:10431000367E3E034405233CAF482323367E3E04CD
:104320004405233CA84837233698CF08F9465C2635
:10433000367E3E064405233CA9485023367E3E0780
:1043400046F023461F2636982E03CF09F944DD2375
:104350003CDE485C23367E3E054405233CBC487F5A
:10436000233680CF08F946BC213CBD68C5233CBE3E
:1043700068D3233680CF09F9367E3E094405233CB5
:10438000BD48A2233680CF08F946BC213CBC68C595
:10439000233CBE68CC233680CF09F9367E3E0A44E2
:1043A00005233CBE48DA233680CF08F946BC213CC1
:1043B000BC68D3233CBD68CC233680CF09F9367E58
:1043C0003E0B440523367E3E0C440523367E3E0DCF
:1043D000440523367E3E0E44052346E42136802ED6
:1043E00003CF08F936BFC709B948C82244B436001C
:1043F00036502E03C7A068B52430C73CAE680A24E7
:104400003CB07037243CBA50372431C73C01682196
:104410002486F0C73CC5482124368046BC2144E4AC
:104420002136972E02C70404F8F046B43136502ED8
:1044300003462B3244B52436F82E033E0036501E78
:10444000042688C73C01484D2436523E0036512E82
:104450000346F531C730CF3046F531BF48652430CB
:10446000C1BF689D2446CA2536F82E03CF08F93609
:104470003F2E04C1BF484D24363F2E04CF08F9C15A
:104480003C1550AE2136512E030E02461230F4EB8D
:10449000A8F830F830F830F8C61404E0DD46D6311C
:1044A00036972E02C70404F8F046B43146E631468A
:1044B000F53146AB3146C921367EC73C0768F62444
:1044C00004A0F0CF3688D7462532C704AFF0C1BF6D
:1044D00068E32470E324367ECF3688D710FA462569
:1044E00032F9073688C786F0C7A02B3688D711FA6D
:1044F00046102544B52436882E03C786F0C7A06829
:1045000060253688D711FA3C062B46102544F62440
:1045100036F92E03F836972E02C7F046BD3136978E
:10452000C71404F836F92E03C73C01688C2F3C02EF
:104530006821303C03682D303C0468D9303C056864
:10454000CF253C09686D253C0A687A253C0B6887B5
:10455000253C0C6897253C0D68A7253C0E68B425C2
:1045600036982E033E0006C916A844B221462130D3
:104570003656C7A070BE2544C3254621303656C7DF
:10458000A068BE2544C3254621303656C7A068C35F
:104590002550BE2544C3254621303656C7A068BEE7
:1045A0002570BE2544C3254621303656C7A050BECF
:1045B0002544C3254621303656C7A068C325360496
:1045C00044AB3136573E00442C2FC40404E0073678
:1045D000562E02C73603F8A068BE2572852F460303
:1045E0002F3654CF360BF9365C260C2E02DD0E0426
:1045F00046123046BE253603C7A0700E26360C463E
:10460000C631462D30360BCF09F948FD2507360C4B
:1046100046C63146D930360BCF09F9480E26073643
:10462000982E03C786F0C73E0036832E04F8A02BD1
:1046300070AC373C0168BF263C02680C273C03681D
:1046400002273C0468C6363C05682B273C06686296
:10465000373C07681B273C0868B6200036502E03FD
:10466000C7A02B36822E043E0036822E04CF08F9D6
:10467000160236BC2E0346B4261E03265046F621EB
:1046800068A32636822E04C73C0848692636822E47
:10469000043E0044D83736982E033E0006C616C1A5
:1046A00044B22136822E04CF36982E03D7462532C7
:1046B000F944C921C1021148B52686F003280736FE
:1046C000562E02C7A050F326360C46B43146032FAF
:1046D00036533E0046372F360C46BD314621303624
:1046E00056C7A068FD26360C46AB31361446C63197
:1046F000468C2F46032F36533E0044372F360C444A
:10470000AB3136562E02C7A070852F0736562E02C3
:10471000C7A02B50BE25361444AB3146032F365468
:10472000C7469E22367F2E033EFF0746032F365490
:10473000C7362397367F2E033EFF7083362BD00675
:10474000A0469E22114841270736812E04C7A06843
:104750005C273E003684F72E0544B43136F82E032C
:104760003E0036501E042688C73C01487227365248
:104770003E0036512E0346F531C730CF3046F53175
:10478000BF488A2730C1BF68B32746CA2536F82EEE
:1047900003CF08F9363F2E04C1BF487227363F2E9B
:1047A00004CF08F9C13C1550AE2136512E030E023C
:1047B00046123046F53146B43144C92136502E03F5
:1047C000DD266444CD2736642E03DD2650CF084411
:1047D000123036EA2E02466D2236002E034628227B
:1047E000C7A068D92736DD2E021E03260046F62113
:1047F00048082836002E06C7A068D227466D2246F4
:104800001B22467D2244F72736E22E0226001E0395
:10481000260046F62168432A1E03260036E62E02AD
:1048200046F6214855282E0336F43E06303E003623
:104830003F2E043E01363D3E0036503E0036883E57
:1048400000303E002E0636003E002E053E00304869
:104850004C2844D22726BA1E022E03360046F621E3
:1048600068B52036BF2E021E03260046F62168B921
:104870002036F02E033E06303E00461C2136832EA5
:1048800003C7A0508D2806D316D944B22136E0C7FD
:10489000A068942A36F03E06303E0036812E033E54
:1048A0000136E83E00368146582968BE283CB07083
:1048B000D3283CBA50D32836E82E0346E821368167
:1048C0002E03CF08F936F02E03D730F7EAC709B91F
:1048D00048A52836F02E03DF30F7EBC7A048E328C1
:1048E000440A2936E82E031E0326E046F6217040CE
:1048F00029480A2936F02E03D730F7EACF0846694F
:104900002936832E03C7A068D22736F02E03DF3066
:10491000E736002E03CF08468A2936F02E03DF3013
:10492000E736002E03462B2944D927CF08C7461B5C
:104930002246F531F8461B2246F53109482D290754
:1049400036F02E03DF30E7EBF4CF0846CA2936F005
:104950002E03FB30FC449B282E03CF36F0DF30E7DC
:1049600046CA29EBF4C73CA007469822D7466722DF
:10497000FAC2A0687C29461B2244692936F42E031A
:10498000DF30C791F8033119FB0736F42E03C73027
:10499000F7E8469822C53C1E50AE21466722D7460E
:1049A0009822FA46672246C42968B22946902244D2
:1049B0009E2936002E03CF0836F4DF30E746CA2999
:1049C000FC31FB07C5BB0BC6BC07C481E00318075D
:1049D00006DE16C344B22136E02E03C7A068EE29D6
:1049E00036F62E02466D2236E02E03466D22467DB7
:1049F0002236812E043E0044D22706C416DA44B281
:104A00002106C616D844B22106C916CE36902E020B
:104A10003E0044B2211E032600463F2A46D631CF2F
:104A2000461B2246142268E63146E63136002E0344
:104A3000C7BC683C2A46E63144192A0026000720F4
:104A40000B1807363B2E043E0036853E0036F02E0E
:104A5000033E06303E0044792A36F02E03DF30E76D
:104A6000EBF4CF0846CA2936F02E03FB30FC36E0C3
:104A70002E03C7A068D227C0C036F02E03D730F768
:104A8000EA1E032600462B2936002E03C7A068D253
:104A900027461C2136832E03C73C0168592A3C0255
:104AA00068222D3C0368242C3C0468872C3C056854
:104AB000F02A3C0668002E3C07687F2E3C0868FF01
:104AC000343C0968A92D3C0A68CF2D3C0B68A138FD
:104AD0003C0C68D2273C0D68162C3C0E48862846B4
:104AE000173836862E03CF3682F946BC27442D2C44
:104AF00036822E03C73600BF70012B467D224459F3
:104B00002A46C92136822E03CF083683F9368346DA
:104B1000BC213CA7688E2B3CA2688E2B3CAC682E37
:104B20002B3CBB682E2B3683461F22480D2B36822A
:104B3000CF0836BEF93683CF0936BFF936F7C7A09E
:104B400068482B3E0044602B46B022367F2E03C7B8
:104B5000A036482E023EFF6AD72B367F2E033E003A
:104B6000368346BC213CAC6AFA2B36832E03CF3603
:104B700082F93600C1BF70012B360046BC213CAC27
:104B800068592A3CBB68592A467D2244592A36F77F
:104B9000F846C9213683CF083684F9368446BC21CD
:104BA00036F7BF68BE2B469E223684461F22489B9E
:104BB0002B06C916D136F72E033E0044B2213684A7
:104BC000CF3682F9C13600BF48012B467D2236F729
:104BD0002E033E0044592A36562E02C7A068E92B00
:104BE00030C7A068F32B447C3306A0469E2206B053
:104BF000449E2236483E00447C333600C7368397B5
:104C00003336232E02C724F0041097D006A0469E08
:104C10002211480E2C0746BC2736822E03CF36833E
:104C2000F9446C2C46C92136642E033E0036822E90
:104C300003CF083683F9368346BC21685D2C3CBD22
:104C4000686C2C3CA848562C46113836862E03CF6B
:104C50003683F9445D2C36642E0346E821368346BC
:104C60001F2248362C06CC16C544B22136832E03AB
:104C7000CF0836BEF93600CF36BFF946B02246C659
:104C80002746492744592A36E82E033E003682CF6C
:104C9000083683F9368346BC2168AB2C3CB070B330
:104CA0002C3CBA50B32C36E846E8213683461F2206
:104CB00048942C36F02E033E06303E0046C921367D
:104CC000843E01368446582968D82C3CB070EB2CC1
:104CD0003CBA50EB2C46E42136842E03CF08F9363B
:104CE000F0D730F7EAC709B948C32C36502E031E57
:104CF0000326E846F62168792A36F02E03DF30E7EE
:104D0000EBF4CF0846CA2936F02E03FB30FC36F40C
:104D1000C3BF48BC2C30C4BF48BC2C06D516CE44FB
:104D2000B22136822E03CF0836BEF946C92136D0CD
:104D30002E0246152AC4A0484D2D360B2E044615CA
:104D40002AC4A0484D2D06C916C644B22136BF2E2E
:104D50000321FC46B02236562E02C7A068592A36D7
:104D6000BF2E03C704053682F8C8083684F9368496
:104D700046BC2148812D3684461F22486E2D44466C
:104D80002D3CB0708B2D3CBA70872C3600C7368412
:104D900097C808D73600F9F21E03260146123036AE
:104DA000823E0146532144942A36E02E03DF18192F
:104DB00068B82D36F0DF30E7363B2E04C704023CDE
:104DC0001150F22DF8363E86F0FB30FC44872C362D
:104DD0003B2E04C7140270F92DF80402363E86F00B
:104DE000DF181968D22730E736F02E03FB30FC4479
:104DF000592A06C716D344B22106D216D444B2218A
:104E000046C9213682CF083683F9368346BC2168ED
:104E10002D2E3CAC683E2E3CA8482A2E461C383627
:104E2000862E03CF3683F9442D2E46E42136834661
:104E30001F22480A2E464F2E46492744592A464FDC
:104E40002E4649272E033683CF3682F944002E366C
:104E500050C786F0C73CA4486B2E3650CF09F946A0
:104E60007A2E46AD223654F844372F36642E030688
:104E7000BF469E22462822442B322E0244C32536AA
:104E8000642E033E0036663E0036852E04CF08F9B8
:104E900036F02E03DF30E7C10202045CF02E04FB83
:104EA00030FC36D52E0246152AC4A048B52E06C6BB
:104EB00016C544B22136822E03CF083684F93683D4
:104EC000FC368446BC2168D32E3CBD68DE2E366499
:104ED00046E8213684461F2248C12E44AE2E368431
:104EE000CF0836BEF93683CF0936BFF946B0224621
:104EF000C62736642E03C73C01489A3636663E0004
:104F0000449A3636562E02C73640F8A072852F36A0
:104F1000570617CF0809702C2F9170012AD03656EA
:104F20000E0346903111481E2F44802F3656A8F8A4
:104F300031F831F831F8070E17C12E023657A06844
:104F4000432FF931C73640F8A050532F0E04365383
:104F5000466F3136560E04C7A048662F31094857B0
:104F60002F3657A8F80736530E04468631C7A0706F
:104F7000792F30CF09F944662F36560E034690310B
:104F80003640C7A01336540E03446F3136562E02F6
:104F9000C7A048A02F3654DDE6365C0E044412301C
:104FA000365EC7A02B3657C7365FBF68E42FC8C729
:104FB0009950B72FC8A8993C1870C62FC736579775
:104FC00033365444952FC736579770DA2FD036575B
:104FD0004603301148CE2F44E42FD0365F460330CD
:104FE0001048DB2F36533E00365B3E0036574603F3
:104FF00030365F460330DD26530E04465E310E0028
:1050000044392FCF08F9310E04C7A0509031124413
:105010009131C73046F531F83046F531092B44124D
:105020003036542E020E03466F31448C2F467D30AD
:10503000365FC73657870401F836423E1736560E9C
:105040000346903162BF3036660E064690313642D6
:10505000D711FA483D3036660E064690313663C7A2
:1050600012A072C9303653E6DD36630E04461230A4
:105070000E0046392F3641C7A00B44852F36602ECF
:10508000020E08A8F830094884300E043658F8306B
:1050900009488E3036413E013656C7A070B03036D2
:1050A0005EC7A0133641D711FA365C0E03446F3148
:1050B0003641D711FA36540E03466F31449F3026DD
:1050C00061DD36590E06445E310E03064087F83026
:1050D00006008F0948CE30F807467D303656C7A007
:1050E00068FA29365FC73657970401F836423E17EB
:1050F000464831700531265C36590E03461230069B
:10510000011A440631A836640E03468731365C0E18
:10511000034686313642D711FA48F030464831709E
:105120003F313664C70401F80600308FF8060030BE
:105130008FF8503F310E034690313657CF08F9367D
:105140006326530E04446D302659DD36540E034653
:1051500012302659365C0E03469A31C7A007A0C705
:1051600046F5318FF8092B3046F53130445F31C7B1
:105170002CFF0401F81AD8092B30C72CFFE0C3120A
:1051800006008C447431A0C712F8092B30448731D3
:10519000A0C71AF8092B31449131A0C746F5319FB9
:1051A000F8092B3046F53130449B311E0226540E4F
:1051B00004441230E6DD36542E0244C1311E02266C
:1051C0005C0E0444123046D63136542E0246BD31B0
:1051D00046E63144AB31C5CE36802E02F830F93088
:1051E000FB30FCE8F10736802E02C730CF30DF30CD
:1051F000E7E8F1C707D5EBDAD6F4E2072E023690DE
:10520000D71011480F32F4EBD7104625323E003646
:10521000902E02D710FAF4EB462532C7A02E020BCF
:1052200036903E0007C682F0032807E6DD2E0236E0
:1052300068A80E08F8300948343236430E04F830B6
:1052400009483E3246FC313CAB6854323CAD4857CD
:10525000323643F846FC313CAE6888323CC568982B
:10526000323CA0685432A068D0323CB070082A3C6E
:10527000BA50082A366ED006F8A74854323645CFC1
:1052800008F9463533445432C83646C7A048082A80
:105290003645F830F944543246FC313CAB68A8320C
:1052A0003CAD48AB323644F846FC31A068D0323CC5
:1052B000B070082A3CBA50082A240FC8366F06037B
:1052C000BF70082AD7C7A01212821281F844A832F0
:1052D0003643C7A068DE32366C0E03466F31366B3C
:1052E000A8F8DD26530E0446123046372F3644C741
:1052F000A0366F68FC32C72CFF0401F83646C7A001
:105300006807333645A897366F87F87022332B36F7
:10531000882E0246C631462D30366FD711FA480F17
:105320003307368C2E0246C631462D30366FCF08F5
:10533000F94822330746D631366BC2240FF8266867
:10534000366CDD0E03461230366C0E03468631365F
:105350006C0E03468631266C36680E03465E313687
:105360006C0E03468631366AA8F831F8366BC736BC
:1053700068F8266C0E03465E3144E6312E02366F25
:105380003E003656C7A0708E3306A044973336547D
:105390000E03466F3106AD469E223648C7A068B25E
:1053A0003336570617CF080970B2339170B23344C1
:1053B000C03336483E0006B0469E2206AE469E22C8
:1053C000365706FF87F850E53306048750F7333623
:1053D000882E0246C631462D30366FD711FA365721
:1053E000C7A044C633368C2E0246C631462D303611
:1053F0006FCF08F944DE332674DD36540E034612AF
:105400003036773E0036740E03468631469A34367F
:1054100057CF08F968213436770E04469031440F8F
:105420003436473E073677C7A0687C343677C7A046
:10543000484C343648C7A0684B34366FD7111050EB
:105440004B343676C724E0484B3407A804B0469E58
:10545000223648C7A04866343647D711FA68C734A1
:10546000469A34442C34366FD711FA48733406AE5A
:10547000469E223647D711FA2B446034366FD71137
:10548000FA3676C7A048513431C7A048513431C7E5
:10549000A0485134366FF844513436773E003674A4
:1054A000DD26700E0446123036740E044686313600
:1054B000740E04468631367026740E04465E31360C
:1054C000740E0446863107366FC7A02B06C5469E6C
:1054D00022C7A070DB3406AB44E2342CFF0401F891
:1054E00006AD469E220E00C7140A70F234F8084436
:1054F000E83406B081469E22C704B0469E22073695
:10550000642E033E003682CF083681F9368146BCD0
:1055100021681935366446E8213681461F22480C39
:10552000353664C73C01482D3536663E0036852E3B
:1055300004C70202045E2E04F01E0326650E024616
:105540001422684C3506C616CE44B22136F02E031E
:10555000DF30E730FB30FC36852E04C70202045CE6
:10556000F0DF30E736F02E03FB30FCEBF41E0326B1
:1055700000462B2936D52E0246152AC4A06845358B
:10558000040236BE2E03F836D82E0246152AC4A0D1
:1055900048B43536042E0246AB3136C446B43136F3
:1055A000002E03CF36BFF946B02236C82E0246B4CD
:1055B0003144DD352136BF2E03FC46B02236C82EDD
:1055C0000246B43136BF2E03C7040531F83600CF8A
:1055D00036BFF946B02236C42E0246B43136642EA8
:1055E000033E00361C2E0446152AC4A036822E0324
:1055F000F868453504033683F8368346BC21680BCA
:10560000363CBD681636366446E8213683461F228E
:1056100048F93544453536822E03C7040336BEF8B3
:105620003683CF0936BFF946B02236C42E0246C6AD
:1056300031468C2F36CC2E0246B43136C846C631A0
:1056400046213036C6C7A03656C7684535706C3619
:10565000A070733668733636F32E03E731DF31FC02
:1056600031FB36852E04CF09F944592AA0507336F0
:1056700044573636CC2E0246AB3146C6274649271C
:1056800044592A068D469E22469E2236232E023EED
:10569000013654C7A0332B442E2736852E04C7026B
:1056A00002045EE0DD36652E030E024612304649E6
:1056B0002744592A367E3E0046F02336972E02C7ED
:1056C0003C982B448628360C2E0246B4313656C7F9
:1056D000A0705B3768C325360FC7A070E7361AC8BD
:1056E000060012F844F836C8A891A01AC806008827
:1056F000F868F53608A891C8360BF93604261CDD83
:105700000E0446123046C325362446B431361C46B4
:10571000AB31360C46BD3146D930361C46BD31461C
:105720008C2F3657CF09F9361C46B431362446BD86
:10573000314621303657C73CF7704F3731C7A06824
:105740004F37361CDD26240E04461230440D373602
:105750000BC7361F87F8361C44AB3106D316D1442D
:10576000B22136342E0246AB31362846BD31462DA5
:1057700030363046BD31468C2F363446B43136573C
:10578000C71410F846032F36533E0036573E0046E6
:10579000372F3657C70410F8363446BD314621300E
:1057A000363446B4313657C71410F80736562E0231
:1057B000C7A0700A3846032F3654C714010202D01E
:1057C00036832E04C72CFF020204502E04F0303022
:1057D000C782F02E0544AB3136822E04CF08F9166D
:1057E00002364C2E0446B4261E03265046F6216887
:1057F000003836822E04C7363DBF48D83744962637
:1058000036822E04A89FF844A32606CF16D244B2AF
:105810002146C627441C383682441E3836832E0360
:10582000CF0836BEF93686F9368646BC213CA968D3
:1058300041383686461F2248283806C116C644B26B
:10584000213686CF0936BFF936873E0036872E03CC
:10585000CF08F91602364C2E0446B42626501E03F5
:1058600046F62168763836872E03C7363D2E04BFAC
:10587000484C3844962646B02246032F36872E03DE
:10588000CF1602364C2E0446B4263030D736542E6E
:1058900002C7140102028236842E04F836813EFFCC
:1058A0000746C9213682CF083683F9368346BC21A4
:1058B00068BB383CA868C63846E4213683461F22B8
:1058C00048AB38448B3936863E0036862E03C702F5
:1058D00002044C2E04F026501E0346F621686D3952
:1058E00036862E03CF08F9363D2E04C709B948CABB
:1058F00038363D2E04CF08F9363EF936862E03F9A8
:10590000C70202044CE01E0436502E03462B2946E3
:10591000C92136832E03CF083684F9368446BC214C
:105920006835393CA96840393CB0708B393CBA5075
:105930008B3946E4213684461F22481B39448B3973
:1059400036502E03462B3246032F3654C70202D060
:10595000363E2E04C7140102020452F02E04CF0476
:1059600004F0C182F836842E03CF3683F93683469D
:10597000BC213CAC6882393683461F22486D3944CD
:10598000592A3683CF3682F944A13806C416C54455
:10599000B221FFFFFFFFFFFFFFFFFFFFFFFFFFFF42
:1059A000FFFFFFFFFFFFFFFFFFFFFFFFFFFFFFFF07
:1059B000FFFFFFFFFFFFFFFFFFFFFFFFFFFFFFFFF7
:1059C000FFFFFFFFFFFFFFFFFFFFFFFFFFFFFFFFE7
:1059D000FFFFFFFFFFFFFFFFFFFFFFFFFFFFFFFFD7
:105D00000000000000004001000000000000000052
:105D1000000000000000C0010000000000000000C2
:105D200000000000000000000150720200000000AE
:105D300003686F0C0000000000000000000000007D
:105D40000000000000000000000000000000000053
:105D50000000000000000000000000000000000043
:105D60000000000000000000000000000000000033
:105D70000000000000000000000000000000000023
:105D8000000000000000000000005004676666FD8F
:105D9000000000000000000000FFFFFFFFFFFFFF0A
:105DA000FFFFFFFFFFFFFFFFFFFFFFFFFFFFFFFF03
:105DB000FFFFFFFFFFFFFFFFFFFF04C5D8C9D403AC
:105DC000CDCFCEA0000000000000000000000000C9
:105DD00004D4C8C5CE02D4CF04D3D4C5D004CCC912
:105DE000D3D403D2D5CE03D3C3D20B948D8AD2C5DC
:105DF000C1C4D98D8A8A09A0C1D4A0CCC9CEC5A0FE
:105E00000000000000000000000000000000000092
:105E10000000000000000000000000000000000082
:105E20000000000000000000000000000000000072
:105E30000000000000000000000000000000000062
:105E40000000000000000000000000000000000052
:105E50000000000000000000000000000000000042
:105E60000000000000000000000000000000000032
:105E70000000000000000000000000000000000022
:105E80000000000000000000000000000000000012
:105E90000000000000000000000000000000000002
:105EA00000030304040506010202020202020200CA
:105EB00003030404050101020202020202020000BF
:105EC00003C9CED403D3C7CE03C1C2D303D3D1D227
:105ED00003D4C1C203D2CEC403C3C8D203D5C4C63F
:105EE00000000000000000000000000000000000B2
:105EF0001B0000000000000000FFFFFFFFFFFFFF8E
:105F000003D2C5CD02C9C603CCC5D404C7CFD4CFF4
:105F100005D0D2C9CED405C9CED0D5D403C6CFD2F0
:105F200004CEC5D8D405C7CFD3D5C206D2C5D4D5E3
:105F3000D2CE03C4C9CD03C5CEC40000000000000A
:105F40000000000000000000000000000000000051
:105F50000000000000000000000000000000000041
:105F60000000000000000000000000000000000031
:105F70000000000000000000000000000000000021
:105F80000000000000000000000000000000000011
:105F90000000000000000000000000000000000001
:105FA00000000000000000000000000000000000F1
:105FB00000000000000000000000000000000000E1
:105FC00000000000000000000000000000000000D1
:105FD00000000000000000000000000000000000C1
:105FE00000000000000000000000000000000000B1
:105FF00000000000000000000000000000000000A1
:1060000003EFC3F00501DF6B48C5E2F549C5E3F5D1
:106010004AC5E4F54BC5E5F5E5AF14D0010EDF6FD9
:10602000E2C50BF5E3C50CF5E4C50DF5E5C50EF5C8
:10603000D5ECC2F00BC5E2F50CC5E3F50DC5E4F5F2
:106040000EC5E5F5000EE16F000EE06F68C5CFF5F7
:1060500069C5D0F5DF51D8B40DD0DF51D8A404D034
:10606000000EC56F2B0E03D0000EC56F2D0EC46F32
:10607000C4C5DFF5E2C50BF5E3C50CF5E4C50DF5C8
:10608000E5C50EF52AECC0F00B040C10D8A42AD0FC
:106090000501DF51D8B409D0DFC56EF5CF07D8A010
:1060A000D007000EE16F010EE06F6E0EE0250B6E63
:1060B000050EE1210C6E820E0D6EBBECC2F0FD0EE2
:1060C000CF27FF0ED02346C51CF547C51DF56E0E24
:1060D0001E6E050E1F6ECFC520F5D0C521F5D9EC7B
:1060E000C1F01200E2C50BF5E3C50CF5E4C50DF5F2
:1060F000E5C50EF52AECC0F00B500C10D8A418D052
:106100000501DF51D8B409D0DFC56EF5CF07D8A09F
:10611000D007000EE16F010EE06F6E0EE0250B6EF2
:10612000050EE1210C6E860E0D6EBBECC2F0C7D7DA
:10613000000E0501E66F000EE76F800EE86F3F0E60
:10614000E96F000ECE6F000ECD6FE2C50BF5E3C513
:106150000CF5E4C50DF5E5C50EF5000E0F6E000E4D
:10616000106E000E116E000E126E94ECC1F0D8A0ED
:106170000CD0BED0D1C5E6F5D2C5E7F5D3C5E8F55C
:10618000D4C5E9F50501CD4BCE2BE6C519F5E7C51C
:106190001AF5E8C51BF5E9C51CF5000E1D6E000ECD
:1061A0001E6E200E1F6E410E206E8EECB6F019C5CD
:1061B000D1F51AC5D2F51BC5D3F51CC5D4F505011B
:1061C000D151E25D0B6ED251E3590C6ED351E459BB
:1061D0000D6ED451E5590E6E13ECC2F00EBECAD747
:1061E0000E500D100C1004E1020E0B5CD8A0C2D7AB
:1061F000D1C532F5D2C533F5D3C534F5D4C535F59F
:10620000E2C536F5E3C537F5E4C538F5E5C539F53A
:10621000C2ECBFF0D8A0AED70501E651E25D0B6E2F
:10622000E751E3590C6EE851E4590D6EE951E55917
:106230000E6E13ECC2F00EBE08D00E500D100C10F6
:1062400043E1020E0B5CD8B03FD0E6C5E2F5E7C5EE
:10625000E3F5E8C5E4F5E9C5E5F54AD0E6C519F585
:10626000E7C51AF5E8C51BF5E9C51CF5000E1D6E5E
:10627000000E1E6E200E1F6E410E206EF0ECBAF066
:1062800019C5E6F51AC5E7F51BC5E8F51CC5E9F51E
:106290000501CD07D8A0CE07E651E25D0B6EE751B0
:1062A000E3590C6EE851E4590D6EE951E5590E6E53
:1062B00013ECC2F00EBEC9D70E500D100C1004E145
:1062C000020E0B5CD8A0C1D7E2C532F5E3C533F5A9
:1062D000E4C534F5E5C535F5E6C536F5E7C537F56A
:1062E000E8C538F5E9C539F5C2ECBFF0D8A0B6D796
:1062F0004CC5C7F5C7C5C8F505016BBF05D06AC554
:10630000C0F56BC5C1F504D0000EC16F060EC06F9D
:10631000C0C5CBF5C1C5CCF5CB4BCC2B660EC8198F
:10632000D8A416D0CEAF0CD0000EE66F000EE76FEB
:10633000800EE86F3F0EE96F000ECE6F000ECD6F3E
:10634000670EC719D8B404D0CD51CB27CE51CC237A
:10635000000ED66F000ED56FE2C5D7F5E3C5D8F5B0
:10636000E4C5D9F5E5C5DAF5E6C5D1F5E7C5D2F559
:10637000E8C5D3F5E9C5D4F57BD0D7C519F5D8C59F
:106380001AF5D9C51BF5DAC51CF5E6C51DF5E7C537
:106390001EF5E8C51FF5E9C520F5F0ECBAF019C502
:1063A00032F51AC533F51BC534F51CC535F54EEC71
:1063B000BEF032C5DBF533C5DCF534C5DDF535C5DA
:1063C000DEF5DBC50BF5DCC50CF5DDC50DF5DEC571
:1063D0000EF590ECC0F00BC5C9F50CC5CAF5D7C5D4
:1063E00032F5D8C533F5D9C534F5DAC535F5DBC591
:1063F0001DF5DCC51EF5DDC51FF5DEC520F5E6C5BE
:1064000019F5E7C51AF5E8C51BF5E9C51CF58EECCD
:10641000B6F019C536F51AC537F51BC538F51CC5D4
:1064200039F538ECC2F032C5D7F533C5D8F534C5E7
:10643000D9F535C5DAF5E6C519F5E7C51AF5E8C5A4
:106440001BF5E9C51CF5000E1D6E000E1E6E200E1C
:106450001F6E410E206EF0ECBAF019C5E6F51AC5B4
:10646000E7F51BC5E8F51CC5E9F50501D54BD62BAD
:10647000CB51D55DD651800A4D6ECC51800A4D5816
:10648000D8A07BD7E6C519F5E7C51AF5E8C51BF511
:10649000E9C51CF5000E1D6E000E1E6EA00E1F6ECF
:1064A000400E206E8EECB6F019C5DBF51AC5DCF592
:1064B0001BC5DDF51CC5DEF5D7C532F5D8C533F5EE
:1064C000D9C534F5DAC535F5DBC536F5DCC537F5A4
:1064D000DDC538F5DEC539F5C2ECBFF0D8B003D064
:1064E000000E050118D0D7C50BF5D8C50CF5D9C5D8
:1064F0000DF5DAC50EF5DBC50FF5DCC510F5DDC50C
:1065000011F5DEC512F594ECC1F0D8A00BD0050151
:10651000C9B108D0000EDB6F000EDC6F000EDD6F1E
:10652000000EDE6FE2C50BF5E3C50CF5E4C50DF515
:10653000E5C50EF5DBC50FF5DCC510F5DDC511F5BC
:10654000DEC512F522ECB8F00BC5D7F50CC5D8F5B1
:106550000DC5D9F50EC5DAF5D7C532F5D8C533F571
:10656000D9C534F5DAC535F5000E1D6E000E1E6E68
:10657000200E1F6E410E206ED1C519F5D2C51AF539
:10658000D3C51BF5D4C51CF58EECB6F019C536F590
:106590001AC537F51BC538F51CC539F5C2ECBFF077
:1065A000D8A024D00501CD4BCE2BD1C519F5D2C52D
:1065B0001AF5D3C51BF5D4C51CF5000E1D6E000ED3
:1065C0001E6E200E1F6E410E206E8EECB6F019C5A9
:1065D000D1F51AC5D2F51BC5D3F51CC5D4F5660E89
:1065E0000501C819D8A402D0CB4BCC2BD1C5E6F5F8
:1065F000D2C5E7F5D3C5E8F5D4C5E9F5CDC5BEF5F7
:10660000CEC5BFF50501C66B000EC36F000EC26F8D
:10661000000ED66F000ED56FCDD0D7C519F5D8C5F1
:106620001AF5D9C51BF5DAC51CF5E6C51DF5E7C594
:106630001EF5E8C51FF5E9C520F5F0ECBAF019C55F
:1066400032F51AC533F51BC534F51CC535F54EECCE
:10665000BEF032C5DBF533C5DCF534C5DDF535C537
:10666000DEF5DBC50BF5DCC50CF5DDC50DF5DEC5CE
:106670000EF590ECC0F00CBE06D00C5013E10A0EE3
:106680000B5CD8B00FD0DBC50BF5DCC50CF5DDC558
:106690000DF5DEC50EF590ECC0F00BC5C9F50CC5C7
:1066A000CAF505D0000E0501CA6F090EC96F0501B4
:1066B000C651D8B4BFAF20D06E0EE025D96E050EFE
:1066C000E121DA6E2E0EDF6EE04BE12BCF07D8A072
:1066D000D007010EC66F10D06E0EE025D96E050EE4
:1066E000E121DA6E300EDF6EE04BE12BCF07D8A050
:1066F000D007C207D8A0C307C251C311D8A4ECD792
:106700006E0EE025D96E050EE121DA6EC951300F0B
:10671000DF6EE04BE12BCF07D8A0D007D7C532F50D
:10672000D8C533F5D9C534F5DAC535F5DBC51DF562
:10673000DCC51EF5DDC51FF5DEC520F5E6C519F57E
:10674000E7C51AF5E8C51BF5E9C51CF58EECB6F0F2
:1067500019C536F51AC537F51BC538F51CC539F509
:1067600038ECC2F032C5D7F533C5D8F534C5D9F504
:1067700035C5DAF5E6C519F5E7C51AF5E8C51BF51F
:10678000E9C51CF5000E1D6E000E1E6E200E1F6E5C
:10679000410E206EF0ECBAF019C5E6F51AC5E7F522
:1067A0001BC5E8F51CC5E9F50501BE07D8A0BF0764
:1067B000D54BD62BCB51D55DD651800A4D6ECC51E1
:1067C000800A4D58D8B008D0E1BF27D7E15104E185
:1067D0004B0EE05DD8A021D7000ED66F4F0ED56FBF
:1067E0006E0ED525D96E050ED621DA6EDF6A6E0ED5
:1067F0004D6E050E4E6EE0514D5EE1514E5AD55133
:106800004D240B6ED6514E200C6E6E0E0D6E050E85
:106810000E6EE0C50FF5E1C510F57DECC2F0E0515C
:10682000D55DE06FE151D659E16FDF51D8B402D0A8
:10683000010E01D0000ED56FD66BDF51D8B40BD04E
:10684000E007D8A0E1076E0EE025D96E050EE12124
:10685000DA6EDFC5DFF4D551CF5FD651D05B46C5C8
:106860001CF547C51DF56E0EE0251E6E050EE121D7
:106870001F6ECFC520F5D0C521F5D9ECC1F01200AF
:10688000080E0001B16F0401006B200EBE6EDF0E1A
:10689000C66E0169086BC7680969106BC06ADF0EB4
:1068A000C86E1169186BC9681969206BCA682169BB
:1068B000089BC79A180E02010E6F04010899C79829
:1068C0001A0E02010D6F696A786A020E616E020E7D
:1068D000706E686A776A6A6A796A000E646E7F0E03
:1068E000636E000E6C6E2C0E6B6E000E7B6E230EB4
:1068F0007A6E63C472F464C473F4840E696E00002B
:106900000000000000000000000000000000000087
:10691000000000000000000000000000840E786EFF
:106920000201616B010E626F0C0E636F0D0E646FDE
:10693000020E656F0B0E676F0001D56B060ED86FE8
:10694000020ED96F350EDA6F7F0EDB6F050EDC6F2E
:10695000200EDD6FDE6BDF6BD76B940ED66F010EF2
:10696000D56F060ED86F020ED96F360EDA6F7F0E16
:10697000DB6F050EDC6F200EDD6FDE6BDF6BD76B20
:10698000940ED66F020ED56FD86B010ED96F040E20
:10699000DA6F7F0EDB6F010EDC6F080EDD6F100EFD
:1069A000DE6F400EDF6FD76B820ED66F030ED56F92
:1069B000D86B010ED96F040EDA6F7F0EDB6F010EFC
:1069C000DC6F080EDD6F200EDE6F400EDF6FD76BC1
:1069D000820ED66F040ED56F060ED86F020ED96FD9
:1069E000390EDA6F7F0EDB6F050EDC6F200EDD6F68
:1069F000DE6BDF6BD76B940ED66F060ED56FD86B40
:106A0000010ED96F040EDA6F7F0EDB6F020EDC6FA2
:106A1000080EDD6F100EDE6F400EDF6FD76B820E3B
:106A2000D66F010E0201D56FA00ED46FD189D18B24
:106A30000401009FC68E070E0201766F0401009DBF
:106A4000BE8CC69C260E0201076FD28F000E196EF7
:106A5000000E1A6E7A0E1B6E470E1C6E010E63241A
:106A60000501F66F000E6420F76FF6C50BF5F7C54C
:106A70000CF50D6A0E6A000E22ECBFF00BC51DF579
:106A80000CC51EF50DC51FF50EC520F5F0ECBAF0CE
:106A900019C5F8F51AC5F9F51BC5FAF51CC5FBF5BE
:106AA000610E0501EF6FF8C5F0F5F9C5F1F5FAC50E
:106AB000F2F5FBC5F3F514ECC3F06BC40BF56CC435
:106AC0000CF50D6A0E6A000E22ECBFF00BC519F52D
:106AD0000CC51AF50DC51BF50EC51CF5000E1D6E77
:106AE000000E1E6E7A0E1F6E410E206E8EECB6F0FA
:106AF00019C5FCF51AC5FDF51BC5FEF51CC5FFF54E
:106B00003A0E0501EF6FFCC5F0F5FDC5F1F5FEC5C8
:106B1000F2F5FFC5F3F514ECC3F07AC40BF57BC4B2
:106B20000CF50D6A0E6A000E22ECBFF00BC519F5CC
:106B30000CC51AF50DC51BF50EC51CF5000E1D6E16
:106B4000000E1E6E7A0E1F6E410E206E8EECB6F099
:106B500019C5FCF51AC5FDF51BC5FEF51CC5FFF5ED
:106B6000110E0501EF6FFCC5F0F5FDC5F1F5FEC591
:106B7000F2F5FFC5F3F514ECC3F0000E6D6F000ED7
:106B80006C6F000E6C25F66E000E6D21F76EF86AC4
:106B9000010EF822000E6C25D96E060E6D21DA6EFC
:106BA0000800F5C4DFF46C4B6D2B1F0E6D5DD8A093
:106BB000E8D7030E0001916FC40E926F020E936F1F
:106BC000996B030E966F956B918F340E0201096FCE
:106BD000350E0A6F360E056FC790C792C698000E25
:106BE0000B6E0F0EECECC2F0000E0B6E0A0EECEC0E
:106BF000C2F0070E0B6E0B0EECECC2F0010E0B6E2A
:106C00000C0EECECC2F0000E0B6E090EECECC2F0B8
:106C1000FF0E0B6E010EECECC2F0FF0E0B6E020EBF
:106C2000ECECC2F0FF0E0B6E030EECECC2F0FF0EAC
:106C30000B6E040EECECC2F0FF0E0B6E050EECECCE
:106C4000C2F0FF0E0B6E060EECECC2F0FF0E0B6EE8
:106C5000070EECECC2F0FF0E0B6E080EECECC2F06F
:106C6000550EE8C440F6550E0401596FAA0E596F2F
:106C70005991080E5D6F000E5E6F000E5F6F550E2E
:106C8000596FAA0E596F5981AE9AB492B59AB79AB4
:106C9000B892B992BC92BD929E8AA482A59AA79AF4
:106CA000A882A992AC92AD92D68EE06A010EF86EDF
:106CB0000001D56B036A046A42C602F541C601F5BC
:106CC000D08A48C60BF5080EECECC2F049C60BF5AD
:106CD000070EECECC2F04AC60BF5060EECECC2F067
:106CE0004BC60BF5050EECECC2F04CC60BF5040ED2
:106CF000ECECC2F04DC60BF5030EECECC2F04EC648
:106D00000BF5020EECECC2F04FC60BF5010EECECED
:106D1000C2F0420EE82EFED700D0D3D71C50800B15
:106D2000256E1C501C242B6E1BBE2B802B50D8B400
:106D30000DD02B28D8A408D0000E196E000E1A6EA4
:106D4000000E1B6E000E1C6E1B8E08D0000E196EFE
:106D5000000E1A6E000E1B6E000E1C6E2050800B73
:106D6000251A20502024266E1FBE26802650D8B417
:106D70000DD02628D8A408D0000E1D6E000E1E6E61
:106D8000000E1F6E000E206E1F8E08D0000E1D6EAE
:106D9000000E1E6E000E1F6E000E206E2650D8B420
:106DA00003D02B50D8A409D0000E196E000E1A6E15
:106DB000000E1B6E000E1C6E12001F501902F3C451
:106DC00030F5F4C431F53050276E286A296A2A6AF2
:106DD00031502C6E2D6A2E6A2F6A1E501A02F3C48F
:106DE00030F5F4C431F530502726000E2822292230
:106DF0002A2231502C26000E2D222E222F221D5009
:106E00001B02F3C430F5F4C431F530502726000ED0
:106E1000282229222A2231502C26000E2D222E2211
:106E20002F2229C52AF528C529F527C528F5276A5F
:106E30001D501A02F3C430F5F4C431F53050272642
:106E400031502822000E2922000E2A221E5019023B
:106E5000F3C430F5F4C431F53050272631502822E0
:106E6000000E2922000E2A2229C52AF528C529F557
:106E700027C528F5276A1D501902F3C430F5F4C45C
:106E800031F53050272631502822000E2922000EDD
:106E90002A221F501A02F3C430F5F4C431F53050E1
:106EA0002C2631502D22000E2E22000E2F221E5095
:106EB0001B02F3C430F5F4C431F530502C263150A8
:106EC0002D22000E2E22000E2F221F501B02F3C473
:106ED00030F5F4C431F53050216E3150226E236A02
:106EE000246A23C524F522C523F521C522F5216A8C
:106EF00021502C2622502D2223502E2224502F2286
:106F00002A502C26000E2D222E222F2229C52AF5AA
:106F100028C529F527C528F5276A26502BC521F550
:106F2000226A2126000E2222820E2124306EFF0EBC
:106F30002220316E0FD0D8902C362D362E362F369B
:106F40002ABE2C80D8902736283629362A36300695
:106F5000D8A031062EAEEFD7266A2AAE17D0FF0E84
:106F60002714216EFF0E2814226EFF0E2914236EA3
:106F70007F0E2A14246E2150221023102410D8B41E
:106F800003D0010E266E02D02CB0FBD72650D8B409
:106F90001FD0010E2C26000E2D222E222F222FA0D4
:106FA00017D02CC521F52DC522F52EC523F52FC5EB
:106FB00024F52434243223322232213221C52CF507
:106FC00022C52DF523C52EF524C52FF5304A312ACB
:106FD00031BE0DD0315003E13028D8A008D0000ECA
:106FE0002C6E000E2D6E800E2E6E7F0E1FD031BEC9
:106FF00005D031500DE13004D8B00AD0000E2C6E0F
:10700000000E2D6E000E2E6E000E2F6E256A0FD014
:1070100030C52BF5FF0E2C16FF0E2D167F0E2E16EB
:10702000000E2F162BB02E8ED8902B302F6E2550A1
:107030002F122CC519F52DC51AF52EC51BF52FC518
:107040001CF512000E50800B176E0E500E24196E98
:107050000DBE19801950D8B40ED01928D8A408D064
:10706000000E0B6E000E0C6E000E0D6E000E0E6EFE
:107070000D8E0E6A08D0000E0B6E000E0C6E000E08
:107080000D6E000E0E6E1250800B186E17501818F1
:10709000D8A4178C12501224186E11BE18801850E4
:1070A000D8B40ED01828D8A408D0000E0F6E000E49
:1070B000106E000E116E000E126E118E126A08D044
:1070C000000E0F6E000E106E000E116E000E126E8E
:1070D0001950185CD8B022D017AC02D0800E171A05
:1070E00019C51AF518C519F51AC518F50BC51AF5FD
:1070F0000FC50BF51AC50FF50CC51AF510C50CF523
:107100001AC510F50DC51AF511C50DF51AC511F5FD
:107110000EC51AF512C50EF51AC512F51A6A1950E0
:1071200018C513F5146A135E000E145A14BE2CD041
:10713000145004E11A0E135CD8A026D00B500C108A
:107140000D100E10D8B402D0010E01D0000E1A6E30
:10715000000E0B6E000E0C6E000E0D6E000E0E6E0D
:1071600018C519F515D01AA005D0D8901A30010904
:107170001A6E02D0D8901A320BB01A8E0E340E321C
:107180000D320C320B32192A1850195CD8A0EBD7EB
:1071900017BC28D01950D8A409D0000E0B6E000ED1
:1071A0000C6E000E0D6E000E0E6E12000F500B26B0
:1071B00010500C2211500D2212500E220EA071D030
:1071C0001AA005D0D8901A3001091A6E02D0D890B2
:1071D0001A320BB01A8E0E340E320D320C320B32C4
:1071E000192A5FD00F500B5C10500C5811500D58DD
:1071F0000E50800A136E1250800A1358D8B025D052
:107200000B500F5C136E0C501058146E0D5011582B
:10721000156E0E501258166EFF0E13240B6EFF0ED5
:1072200014200C6EFF0E15200D6EFF0E16200E6E34
:10723000800E171A1A6C1A50D8A40FD0010E0B2604
:10724000000E0C220D220E2208D00F500B5E1050A3
:107250000C5A11500D5A12500E5A0B500C100D10A2
:107260000E10D8A41CD01A50D8A419D0000E0B6E42
:10727000000E0C6E000E0D6E000E0E6E1200D890F9
:107280000B360C360D360E361ABE0B801AA002D005
:10729000D88001D0D8901A361950D8A419060DAE4E
:1072A000EED7186A1AAE0BD01AC513F57F0E131657
:1072B000D8B403D0010E186E02D00BB0FBD7185013
:1072C000D8B420D0010E0B26000E0C220D220E2267
:1072D0000EA018D00BC513F50CC514F50DC515F58A
:1072E0000EC516F51634163215321432133213C584
:1072F0000BF514C50CF515C50DF516C50EF51928B9
:10730000D8A4192A1928D8B403D01950D8A40BD05E
:10731000000E0B6E000E0C6E000E0D6E000E0E6E4B
:107320001950D8B4176A19A002D00D8E01D00D9E45
:10733000D89019300E6E17BE0E8E0BC50BF50CC50E
:107340000CF50DC50DF50EC50EF51200D150F66EFB
:10735000E96ECFA6FED7CFB6FED7D150006E3F0B59
:10736000F76EF750060FEA6E09500018D8A40DD03A
:107370000850F618D8A409D0C168CFAAFED7C96AA8
:10738000CFB6FED7C968AE9A110000BC11D01E0E50
:10739000F76406D00350F7260800F5C4C1F402D004
:1073A000EFC4C1F4CFAAFED7C96ACFA6EBD7FDD7E9
:1073B00000AEA8D00AD1B7C4C1F4CFAAFED7C96A1B
:1073C000CFB6FED7C968FFD0C7C2C1F4CFAAFED7D7
:1073D000C96ACFA6F7D7FDD7F6C4E9F4060EEA6E60
:1073E000EFC4C1F4CFAAFED7C96ACFA6EBD7FDD7A9
:1073F00005C5C1F4CFAAFED7C96ACFB6FED7C96802
:10740000CFB607D0FDD7D1C40AF50F0E0A160AC5AC
:1074100043F6CFA6D8D0F7D706C5C1F4CFAAFED77A
:10742000C96ACFA6CFD7FDD707C5C1F4CFAAFED76B
:10743000C96ACFA6C7D7FDD704C5C1F4CFAAFED766
:10744000C96ACFA6BFD7FDD704C5E9F4060EEA6E18
:10745000EFC4C1F4042ACFA6FED7C96ACFA6B2D71B
:10746000FDD741C601F542C602F5D08AACD0D09A0C
:1074700042C602F541C601F5A6D0F6C403F5A3D075
:10748000F6C405F5A0D0F6C406F59DD0F6C407F500
:107490009AD0F6C404F597D0040604C5E9F405D0E3
:1074A000F6C4C9F290D0410E2BD0060EEA6EF6C497
:1074B000EFF489D0420E24D0430E22D0F6C408F552
:1074C000440EE96E060EEA6EF6C4EFF4F6C408F553
:1074D0007AD0F6C409F5450E13D0460E11D0470EEA
:1074E0000FD0480E0DD0490E0BD04A0E09D04B0ECE
:1074F00007D04C0E05D04D0E03D04E0E01D04F0ECE
:10750000E96ED3D70050410AD8B455D7020AD8B48F
:107510005BD7060AD8B460D7020AD8B469D70E0A76
:10752000D8B47AD7020AD8B47FD7060AD8B484D799
:10753000020AD8B489D71E0AD8B493D7020AD8B49D
:1075400096D7060AD8B499D7020AD8B499D70E0AA2
:10755000D8B499D7020AD8B499D7060AD8B499D71B
:10756000020AD8B499D73E0AD8B49AD7020AD8B436
:107570009AD7060AD8B49ED7020AD8B49DD70E0A65
:10758000D8B49CD7020AD8B4A4D7060AD8B4A5D7D1
:10759000020AD8B4A4D71E0AD8B4A3D7020AD8B412
:1075A000A2D7060AD8B4A1D7020AD8B4A0D70E0A27
:1075B000D8B49FD7020AD8B49ED7060AD8B49DD7AC
:1075C000020AD8B49CD7AE9A11001F0EF760FBD701
:1075D000CFA6FED7CFB6FED7D1C4EFF4AE9A110036
:1075E0001C50800B296E1C501C24306E1BBE30803A
:1075F0003050D8B40ED03028D8A408D0000E196E60
:10760000000E1A6E000E1B6E000E1C6E1B8E1C6A86
:1076100008D0000E196E000E1A6E000E1B6E000EC2
:107620001C6E2050800B291A20502024316E1FBE62
:1076300031803150D8B40ED03128D8A408D0000EF3
:107640001D6E000E1E6E000E1F6E000E206E1F8E31
:10765000206A08D0000E1D6E000E1E6E000E1F6EFA
:10766000000E206E1D501E101F102010D8A417D021
:10767000000E196E000E1A6E000E1B6E000E1C6EB0
:10768000800E1B127F0E1C1229501C1219C519F5F1
:107690001AC51AF51BC51BF51CC51CF51200305088
:1076A000D8A409D0000E196E000E1A6E000E1B6EC3
:1076B000000E1C6E1200315030C521F5226A215E89
:1076C000000E225A7F0E21242A6E000E22202B6EDD
:1076D00019C525F51AC526F51BC527F51CC528F5BE
:1076E000000E196E000E1A6E000E1B6E000E1C6E40
:1076F000000E2C6E000E2D6E000E2E6E000E2F6EE4
:10770000316A28D03150D8B411D0D89025362636D9
:1077100027362836D89019361A361B361C362FBE17
:107720001980D8902C362D362E362F361D50255CDC
:107730001E5026581F50275820502858D8A009D02E
:107740002F8C1D50255E1E50265A1F50275A205040
:10775000285A312A190E3164D5D725502610271002
:107760002810D8B411D02C800FD0D89019361A36E2
:107770001B361C362FBE1980D8902C362D362E364F
:107780002F362A06D8A02B061BAEEFD7316A2FAEB4
:1077900017D0FF0E2C14216EFF0E2D14226EFF0E3B
:1077A0002E14236E7F0E2F14246E215022102310CE
:1077B0002410D8B403D0010E316E02D019B0FBD71B
:1077C0003150D8B41FD0010E1926000E1A221B22E8
:1077D0001C221CA017D019C521F51AC522F51BC5FE
:1077E00023F51CC524F524342432233222322132DD
:1077F00021C519F522C51AF523C51BF524C51CF5AD
:107800002A4A2B2A2BBE10D02B5003E12A28D8A0BD
:107810000BD0000E2B6E2A68000E196E000E1A6E29
:10782000000E1B6E000E1C6E2BBE05D02B5010E1FF
:107830002A04D8B00DD0000E2B6E000E2A6E000E5A
:10784000196E000E1A6E000E1B6E000E1C6E296A59
:107850002AC530F530A002D01B8E01D01B9ED890D7
:0678600030301C6E11D750
:10786800D1C4F6F4060EEA6E02C5E9F4F6C4EFF4E4
:10787800022ACFA6FED7CFB6FED7D1C400F502C5DF
:10788800E9F400C5EFF4022A00BC0DD001C5E9F403
:10789800EFC4C1F4012ACFAAFED7C96ACFB6FED772
:1078A800C968B492110000AE9BD0FDD0B7C4C1F432
:1078B800CFAAFED7C96ACFB6FED7C968F2D0C7C269
:1078C800C1F4CFAAFED7C96ACFA6F7D7FDD7F6C4A9
:1078D800E9F4060EEA6EEFC4C1F4CFAAFED7C96A6E
:1078E800CFA6EBD7FDD705C5C1F4CFAAFED7C96A85
:1078F800CFA6E3D7FDD706C5C1F4CFAAFED7C96A7C
:10790800CFA6DBD7FDD707C5C1F4CFAAFED7C96A72
:10791800CFA6D3D7FDD704C5C1F4CFAAFED7C96A6D
:10792800CFA6CBD7FDD704C5E9F4060EEA6EEFC49F
:10793800C1F4042ACFA6FED7C96ACFA6BED7FDD701
:10794800D08AAFD0D09A42C602F541C601F5550E8D
:10795800E8C440F6A6D0F6C403F5A3D0F6C405F5EE
:10796800A0D0F6C406F59DD0F6C407F59AD0F6C4A3
:1079780004F597D0040604C5E9F405D0F6C4C9F2A5
:1079880090D0410E2BD0060EEA6EF6C4EFF489D0E3
:10799800420E24D0430E22D0F6C408F5440EE96EF8
:1079A800060EEA6EF6C4EFF4F6C408F57AD0F6C40B
:1079B80009F5450E13D0460E11D0470E0FD0480ECC
:1079C8000DD0490E0BD04A0E09D04B0E07D04C0EE5
:1079D80005D04D0E03D04E0E01D04F0EE96ED3D711
:1079E8000050410AD8B462D7020AD8B468D7060A48
:1079F800D8B46DD7020AD8B476D70E0AD8B47BD7D4
:107A0800020AD8B480D7060AD8B485D7020AD8B4EF
:107A18008AD71E0AD8B494D7020AD8B493D7060ACC
:107A2800D8B499D7020AD8B499D70E0AD8B499D736
:107A3800020AD8B499D7060AD8B499D7020AD8B492
:107A480099D73E0AD8B49AD7020AD8B49AD7060A60
:107A5800D8B49ED7020AD8B49DD70E0AD8B49CD7FA
:107A6800020AD8B4A4D7060AD8B4A5D7020AD8B44B
:107A7800A4D71E0AD8B4A3D7020AD8B4A2D7060A34
:107A8800D8B4A1D7020AD8B4A0D70E0AD8B49FD7C1
:107A9800020AD8B49ED7060AD8B49DD7020AD8B429
:107AA8009CD7B49211001F0EF760FBD70050450B0E
:107AB800EA6EF6C4E9F4CFA6FED7CFB6FED7D1C496
:107AC800EFF4B492110051C5D9F452C5DAF4DFC409
:107AD800F6F4260EF76E000EF86E0800F550250A2B
:107AE800D8A4C3D051C5D9F452C5DAF4DF2A000EA0
:107AF8000501696F000E686F68C55EF56A696B6994
:107B080051C50BF552C50CF553C50DF554C50EF509
:107B1800EDECC0F00BC568F50CC569F569AF05D08B
:107B28005E80686D691FD8B0692B51C5D9F452C5FC
:107B3800DAF4DFC4F6F4260EF76E000EF86E0800CD
:107B4800F5502E0AD8A413D051C5D9F452C5DAF489
:107B5800DF2A51C50BF552C50CF553C50DF554C5B3
:107B68000EF5EDECC0F00BC56AF50CC56BF551C50B
:107B7800D9F452C5DAF4DF505C6E5CC5F6F4260E13
:107B8800F76E000EF86E0800F5C45BF507D05C2AA6
:107B980010D06C0E5B6E0DD05B6A0BD05B504C0A3C
:107BA800D8B4F5D72A0AD8B4F4D70A0AD8B4EFD784
:107BB800F3D75CC5F6F4260EF76E000EF86E0800D3
:107BC800F550660AD8B41AD04AD053C5D9F454C56A
:107BD800DAF4DFC455F5040EDE26DFC456F5000ED0
:107BE800DD2255C5D9F456C5DAF4DEC457F5DEC42E
:107BF80058F5DEC459F5DEC45AF507D05B504C0A77
:107C0800D8B4E3D7200AD8B4E0D75C2851C5D9F452
:107C180052C5DAF4DF6E18D04FC546F550C547F5A2
:107C280057C548F558C549F559C54AF55AC54BF5DC
:107C38005CC5F6F4260EF76E000EF86E0800F5C463
:107C48004CF502ECB0F012005CC5F6F4260EF76EA7
:107C5800000EF86E0800F550660AD8B4DDD751C595
:107C6800D9F452C5DAF4DF2A120051C5D9F452C545
:107C7800DAF4DFC4F6F4260EF76E000EF86E08008C
:107C8800F5500C6E0D6A4FC50EF550C50FF544EC56
:107C9800C1F0E5D760C542F561C543F562C544F555
:107CA80063C545F532C542F533C543F534C544F5DA
:107CB80035C545F5810E366EFF0E376E42C538F56F
:107CC80043C539F544C53AF545C53BF5180E05D009
:107CD800D8903B323A3239323832E82EF9D7385018
:107CE8003624406E000E3720416E41BE0FD0415001
:107CF80004E1170E405CD8A009D032C532F533C56F
:107D080033F534C534F535C535F5120041BE5BD0C1
:107D180040C536F5FF0E376EFF0E386E7F0E396E92
:107D2800000E3A6E366601D007D03A343A3239320C
:107D380038323732362EF6D737C53CF538C53DF5DB
:107D480039C53EF53AC53FF53C504214366E3D50B4
:107D58004314376E3E504414386E3F504514396E04
:107D68003650371038103910D8B4C7D742C536F551
:107D780043C537F544C538F545C539F5200E05D056
:107D8800D8903932383237323632E82EF9D7365071
:107D9800D8B408D03C5042263D5043223E5044229D
:107DA8003F5045223C1C366E3D1C376E3E1C386EDB
:107DB8003F1C396E36504216375043163850441619
:107DC8003950451632D042C536F543C537F544C556
:107DD80038F545C539F5200E05D0D89039323832F6
:107DE80037323632E82EF9D7366608D0000E426EA2
:107DF800000E436E000E446E000E16D0D89042342A
:107E0800366E4334376E4434386E4534396E3650E6
:107E1800371038103910D8B408D0000E426E000E52
:107E2800436E800E446EBF0E456E42C532F543C5A3
:107E380033F544C534F545C535F51200136E1350B6
:107E4800D8A40EAE1AD00BC50FF50CC510F50DC58C
:107E580011F50EC512F50F1E101E111E121E0F2A47
:107E6800000E1022112212220FC515F510C516F5A5
:107E780011C517F512C518F508D00BC515F50CC5B1
:107E880016F50DC517F50EC518F50B500C100D108D
:107E98000E10D8A409D0000E0B6E000E0C6E000E4A
:107EA8000D6E000E0E6E1200960E146E06D0142A79
:107EB800D8901832173216321532000E15140F6E7C
:107EC800000E1614106E000E1714116EFE0E181404
:107ED800126E0F50101011101210D8B40DD0E7D731
:107EE800142A010E1526000E162217221822D890E1
:107EF8001832173216321532000E15140F6E000E96
:107F08001614106E000E1714116EFF0E1814126E50
:107F18000F50101011101210D8B407D0E1D7140662
:107F2800D890153616361736183617BE03D0020EF7
:107F38001460F5D714A0179ED890143214C50FF505
:107F4800106A116A126A0FC512F5116A106A0F6A6F
:107F58000F501512105016121150171212501812F5
:107F68001350D8A40EAE01D0188E15C50BF516C542
:107F78000CF517C50DF518C50EF51200000E3214D4
:107F88003A6E000E33143B6E800E34143C6E7F0E36
:107F980035143D6E3A503B103C103D10D8A408D023
:107FA800000E326E000E336E000E346E000E356E0B
:107FB800000E36143A6E000E37143B6E800E3814DD
:107FC8003C6E7F0E39143D6E3A503B103C103D100C
:107FD800D8A408D0000E366E000E376E000E386E2C
:107FE800000E396E35AE09D0326C331ED8B0332A44
:107FF800341ED8B0342A800E355639AE09D0366CC6
:10800800371ED8B0372A381ED8B0382A800E3956CD
:10801800000E321A000E331A000E341A800E351A6A
:10802800000E361A000E371A000E381A800E391A4A
:108038003650325C375033583850345839503558E8
:10804800D8B002D0D8901200D880120064C515F5B7
:1080580065C516F566C517F567C518F50BC515F599
:108068000CC516F50DC517F50EC518F515C50FF590
:1080780016C510F517C511F518C512F5180E05D057
:10808800D8901232113210320F32E82EF9D70F5031
:10809800136E146A13501410D8A419D0D89015343C
:1080A8000F6E1634106E1734116E1834126E0F508E
:1080B800101011101210D8A405D0000E0C6E020E6C
:1080C8000B6E1200000E0C6E030E0B6E12001328BE
:1080D8001410D8A41CD015C50FF516C510F517C572
:1080E80011F518C512F5090ED8900F36103611364D
:1080F8001236E82EF9D70F50101011101210D8A40C
:1081080002D0010E01D0000E0B6E0C6A1200000E98
:108118000C6E040E0B6E12000D340E34146E1450D7
:10812800D8A409D0000E0B6E000E0C6E000E0D6E5A
:10813800000E0E6E12000BC50FF50CC510F50DC51F
:1081480011F50EC512F5200E05D0D8901232113255
:1081580010320F32E82EF9D70F50136E0D8EFF0E26
:108168000B16FF0E0C16FF0E0D16000E0E16960EB1
:10817800145E14AE0DD01450800A970FD8A0D2D731
:10818800D8900E320D320C320B32143EF9D70DD086
:108198001F0E146407D0C6D7D8900B360C360D3690
:1081A8000E3614061450D8A4F7D71350D8B408D0F4
:1081B8000E1E0D1E0C1E0B6C000E0C220D220E2224
:1081C8000BC50BF50CC50CF50DC50DF50EC50EF55B
:1081D8001200000E136E000E126E0BC5D9F40CC5FA
:1081E800DAF4DFC4F6F4260EF76E000EF86E080017
:1081F800F5502A0AD8A42ED00BC5D9F40CC5DAF448
:10820800DF2A0DC5D9F40EC5DAF4DFC40FF5020E66
:10821800DE26DFC410F5000EDD220FC5D9F410C527
:10822800DAF4DEC412F5DDC413F525D00A0E120205
:10823800F3C40FF5F4C410F51302F35010261150CF
:108248000F24126E000E1020136E0BC5D9F40CC546
:10825800DAF4DF2A0BC5D9F40CC5DAF4DFC4F6F476
:10826800260EF76E000EF86E0800F550D00F116E4E
:10827800090E1164DBD712C50BF513C50CF51200F6
:108288000E500F10D8B404D00E500F10D8A404D03C
:108298000C5033ECC3F0120020EE09F00E50D92632
:1082A8000F50DA22DE50DE10D8B416D020EE09F0D6
:1082B8000E50D9260F50DA2210EE02F00E50E126A9
:1082C8000F50E222DE50E65CE650800A146EDE5063
:1082D800800A1458D8B0120020EE02F00E50D926A9
:1082E8000F50DA22DEC410F5DDC411F50EC5D9F43D
:1082F8000FC5DAF4DEC412F5DDC413F510501224EC
:10830800D96E11501320DA6E0CC5DFF420EE02F09E
:108318000E50D9260F50DA22DE2A000EDD22120076
:10832800000E0B14136E000E0C14146E800E0D1438
:10833800156E7F0E0E14166E1350141015101610AD
:10834800D8A408D0000E0B6E000E0C6E000E0D6E39
:10835800000E0E6E000E0F14136E000E1014146E25
:10836800800E1114156E7F0E1214166E1350141011
:1083780015101610D8A408D0000E0F6E000E106E3F
:10838800000E116E000E126E0F500B180AE11050FD
:108398000C1807E111500D1804E112500E18D8B44A
:1083A80002D0D8901200D88012005EA00AD01EC554
:1083B80015F51FC516F51CC517F51DC518F59FEC55
:1083C800C2F021AE04D0000E216E000E206E000E09
:1083D800246E000E236E0CD0000E0D6E200E0C6E57
:1083E8001CC50EF51DC50FF544ECC1F0234A242A1F
:1083F8002050235C2450800A226E2150800A225883
:10840800D8A0EAD75EB012001EC515F51FC516F52F
:108418001CC517F51DC518F59FECC2F012000EBE5D
:1084280009D00BC50BF50CC50CF50DC50DF50EC522
:108438000EF512000BC50FF50CC510F50DC511F59D
:108448000EC512F50F1E101E111E121E0F2A000E49
:108458001022112212220FC50BF510C50CF511C5FB
:108468000DF512C50EF51200000E361A000E371A59
:10847800000E381A800E391A32C50BF533C50CF5C3
:1084880034C50DF535C50EF536C50FF537C510F5EC
:1084980038C511F539C512F522ECB8F00BC532F51F
:1084A8000CC533F50DC534F50EC535F51200ECC510
:1084B8005DF50ED0EAC54FF5EBC550F55D0E516E72
:1084C800050E526EEDC553F5EEC554F567ECBDF0DB
:1084D8005DC5F6F4260EF76E000EF86E0800F5502E
:1084E8000009D8A4E7D7000E0501EB6F000EEA6F6C
:1084F80012000DC513F50EC514F50BC511F50CC505
:1085080012F510D013C5D9F414C5DAF4DF50156E7E
:10851800134A142A11C5D9F412C5DAF415C5DFF4C3
:10852800114A122A0F06D8A010060F28EBE11028CE
:10853800D8B41200E7D7000E1B6E000E1A6E0BD0CF
:1085480019C50CF50D6A17C50EF518C50FF544ECDD
:10855800C1F01A4A1B2A1A501524D96E1B5016202E
:10856800DA6EDF50196E1950D8B41200E9D70BC56E
:108578000FF50CC510F50D2A0D040E6E0EC5F6F498
:10858800260EF76E000EF86E0FC5D9F410C5DAF492
:108598000F4A102A0800F5C4DFF4DF50D8B41200DF
:1085A800EAD70B500C100D100E10D8B408D0000EDE
:1085B8000B1A000E0C1A000E0D1A800E0E1A0BC59F
:1085C8000BF50CC50CF50DC50DF50EC50EF5120015
:1085D8000C6E000194ABFDD793BFFED7000E906FD1
:1085E800020E8F6F94ABFED793BFFED70CC58EF0EB
:1085F80094ABFED793BFFED70BC58EF0120001EEE9
:1086080060F15E0EEE6AE806FDE15E6A0401080E9E
:108618005D6F000E5E6F000E5F6F000140EFB4F0FB
:10862800F00EF46F050EF56F000EEA6F000EEB6F9B
:10863800EFC5ECF5F40EED6F050EEE6F5BECC2F0D6
:0286480012001E
:10864C00500EE8C441F6500E016E800EE8C442F69E
:10865C00800E026ED08AB89211000B6EB7A2FED7B4
:06866C000BC5C9F212006B
:028674001100F3
:020000040030CA
:080000008CFFFFF79FFFFFFFDB
:01000900FFF7
:00000001FF
