:040000003BEF9CF046
:100008008E568E568E568E5640004D5540008E5652
:100018008E568E568E568E568E568E568E568E56B8
:100028008E564000400040008E568E568E568E5694
:100038008E568E568E568E568E568E568E568E5698
:100048008E568E568E568E56400040008E568E56D0
:100058008E568E568E5640008E568E568E568E561C
:100068008E5617548E568E568E568E568E568E56E1
:100078008E568E568E568E5640008E568E568E56FC
:100088008E568E568E568E568E568E568E568E5648
:100098008E568E568E568E5640008E564000400024
:1000A8008E568E568E568E568E568E568E568E5628
:1000B8008E568E568E568E568E568E568E568E5618
:1000C8008E568E568E568E568E568E568E568E5608
:1000D8008E568E568E568E568E568E568E568E56F8
:1000E80040008E568E568E5640004000400040001C
:0A00F8008E568E568E568E56FF006F
:102600000050574D32202D3E20524234202D3E2086
:10261000504849322077696474682025332E30662B
:10262000206E7365630D0A0D0A0050574D31202D41
:102630003E20524235202D3E2050484931207769B6
:102640006474682025332E3066206E7365630D0A2E
:10265000000D0A454D553830303820636C6F636B80
:102660002073706565642025332E30666B487A0DC3
:0B2670000A00696E66006E616E0000DB
:020000040001F9
:1000000044500153FFFFFFFFFFFFFFFFFFFFFFFF14
:10001000FFFFFFFFFFFFFFFFFFFFFFFFFFFFFFFFF0
:10002000FFFFFFFFFFFFFFFFFFFFFFFFFFFFFFFFE0
:10003000FFFFFFFFFFFFFFFFFFFFFFFFFFFFFFFFD0
:10004000FF0080FFFFFFFFFFFFFFFFFFFFFFFFFF3E
:10005000FFFFFFFFFFFFFFFFFFFFFFFFFFFFFFFFB0
:10006000FFFFFFFFFFFFFFFFFFFFFFFFFFFFFFFFA0
:10007000FFFFFFFFFFFFFFFFFFFFFFFFFFFFFFFF90
:10008000FFFFFFFFFFFFFFFFFFFFFFFFFFFFFFFF80
:10009000FFFFFFFFFFFFFFFFFFFFFFFFFFFFFFFF70
:1000A000FFFFFFFFFFFFFFFFFFFFFFFFFFFFFFFF60
:1000B000FFFFFFFFFFFFFFFFFFFFFFFFFFFFFFFF50
:1000C000FFFFFFFFFFFFFFFFFFFFFFFFFFFFFFFF40
:1000D000FFFFFFFFFFFFFFFFFFFFFFFFFFFFFFFF30
:1000E000FFFFFFFFFFFFFFFFFFFFFFFFFFFFFFFF20
:1000F000FFFFFFFFFFFFFFFFFFFFFFFFFFFFFFFF10
:100100004E466173746572205343454C42414C2006
:100110002832303132290D0A436F64652052656CF4
:100120006F636174696F6E2C20494F20616E64208B
:10013000737461727420757020636F6465206279D6
:100140002047617A656C6C6520323032350D0A00CB
:100150002E013600465121440A277F44B626412409
:1001600001685E01433C08686E016134800706FF48
:10017000073CDC689101247F3C0D6887013C0A68DC
:1001800087013C20609001E8412402688801C56134
:1001900007412402689101060861412402689A011E
:1001A00006206141240268A30106086107FFFFFFE2
:1001B000FFFFFFFFFFFFFFFFFFFFFFFFFFFFFFFF4F
:1001C000FFFFFFFFFFFFFFFFFFFFFFFFFFFFFFFF3F
:1001D000FFFFFFFFFFFFFFFFFFFFFFFFFFFFFFFF2F
:1001E000FFFFFFFFFFFFFFFFFFFFFFFFFFFFFFFF1F
:1001F000FFFFFFFFFFFFFFFFFFFFFFFFFFFFFFFF0F
:1002000000000000000040010000000000000000AD
:10021000000000000000C00100000000000000001D
:100220000000000000000000015072020000000009
:1002300003686F0C000000000000000000000000D8
:1002400000000000000000000000000000000000AE
:10025000000000000000000000000000000000009E
:10026000000000000000000000000000000000008E
:10027000000000000000000000000000000000007E
:10028000000000000000000000005004676666FDEA
:10029000000000000000000000FFFFFFFFFFFFFF65
:1002A000FFFFFFFFFFFFFFFFFFFFFFFFFFFFFFFF5E
:1002B000FFFFFFFFFFFFFFFFFFFF04D3C1D6C50411
:1002C000CCCFC1C40000000000000000000000000E
:1002D00004D4C8C5CE02D4CF04D3D4C5D004CCC96D
:1002E000D3D403D2D5CE03D3C3D20B948D8AD2C537
:1002F000C1C4D98D8A8A09A0C1D4A0CCC9CEC5A059
:1003000000000000000000000000000000000000ED
:1003100000000000000000000000000000000000DD
:1003200000000000000000000000000000000000CD
:1003300000000000000000000000000000000000BD
:1003400000000000000000000000000000000000AD
:10035000000000000000000000000000000000009D
:10036000000000000000000000000000000000008D
:10037000000000000000000000000000000000007D
:10038000000000000000000000000000000000006D
:10039000000000000000000000000000000000005D
:1003A0000003030404050601020202020202020025
:1003B000030304040501010202020202020200001A
:1003C00003C9CED403D3C7CE03C1C2D303D3D1D282
:1003D00003D4C1C203D2CEC403C3C8D203D5C4C69A
:1003E000000000000000000000000000000000000D
:1003F0001B0000000000000000FFFFFFFFFFFFFFE9
:1004000003D2C5CD02C9C603CCC5D404C7CFD4CF4F
:1004100005D0D2C9CED405C9CED0D5D403C6CFD24B
:1004200004CEC5D8D405C7CFD3D5C206D2C5D4D53E
:10043000D2CE03C4C9CD03C5CEC400000000000065
:1004400000000000000000000000000000000000AC
:10045000000000000000000000000000000000009C
:10046000000000000000000000000000000000008C
:10047000000000000000000000000000000000007C
:1020000046AD2036E02E033E0036813E0136814645
:10201000A0206824203CB07031203CBA50312036DA
:10202000E046CC203681460321480D2036833E0011
:10203000073681CF3682F9368246A0206854203C8C
:10204000BD6888203CA8688D2046C820368246039B
:102050002148372036833E012E0436001E032650C9
:1020600046DA202B46D93030C724C048672046D9ED
:102070003036832E03CF08F946D930C13C0D485C79
:10208000202E1636833EFF0736833E0D0736833EED
:102090000E0706C216C7468221C246822144BB28CB
:1020A000C73C50509220F02E03C73CA00736502E5C
:1020B000033E00073CC170BE203CDB70C8203CB032
:1020C00070D7203CBA50D72036502E03D710FAC80C
:1020D000460931F9060007446A27C746D930CFB907
:1020E0000B46D93046FF20C746D93046FF20BF0BEC
:1020F00046D9300948E42007C746D93044EE20309D
:102100000B2807CF08F93600C709B9071600469112
:10211000213CFF48252111700C2146742106DC4624
:102120008221440E213C8368B4283C8D6842213CC6
:102130008A680E2146FF2010F8C23C50509220447D
:102140000E21CA464B21FA46612107C691F00329A8
:1021500007D7C7A02B46FF20C7468221114855212B
:1021600007068D468221068A46822136232E023EAC
:1021700001EBF4073130487A21293107C681F00399
:102180002807DDE636232E02CF08F9467101EBF46D
:1021900007445E0136972E023E94302E033E0046E1
:1021A000AD2036883E0036BECF3680F9368046A058
:1021B0002068C1223CAB48C021367E3E0144E92163
:1021C0003CAD48EF213650C7A048E521367EC73CDC
:1021D0000768E5213C03686A273C05686A27365092
:1021E0003E01303EB0367E3E0246D42244C1223CFF
:1021F000AA48FB21367E3E0344E9213CAF48072232
:10220000367E3E0444E9213CA8481B223698CF087C
:10221000F9464025367E3E0644E9213CA948342251
:10222000367E3E0746D42246032536982E03CF0934
:10223000F944C1223CDE484022367E3E0544E92175
:102240003CBC4863223680CF08F946A0203CBD68DC
:10225000A9223CBE68B7223680CF09F9367E3E09F6
:1022600044E9213CBD4886223680CF08F946A020AB
:102270003CBC68A9223CBE68B0223680CF09F93642
:102280007E3E0A44E9213CBE48BE223680CF08F992
:1022900046A0203CBC68B7223CBD68B0223680CF47
:1022A00009F9367E3E0B44E921367E3E0C44E92195
:1022B000367E3E0D44E921367E3E0E44E92146C875
:1022C0002036802E03CF08F936BFC709B948AC21A4
:1022D0004498350036502E03C7A068992330C73C78
:1022E000AE68EE223CB0701B233CBA501B2331C7B2
:1022F0003C0168052386F0C73CC548052336804667
:10230000A02044C82036972E02C70404F8F046984F
:102310003036502E03460F3144992336F82E033EB3
:102320000036501E042688C73C0148312336523EF1
:102330000036512E0346D930C730CF3046D930BF92
:1023400048492330C1BF68812346AE2436F82E03A6
:10235000CF08F9363F2E04C1BF483123363F2E0443
:10236000CF08F9C13C1550922036512E030E02467B
:10237000F62EF4EBA8F830F830F830F8C61404E084
:10238000DD46BA3036972E02C70404F8F04698307E
:1023900046CA3046D930468F3046AD20367EC73CDF
:1023A0000768DA2304A0F0CF3688D7460931C7047E
:1023B000AFF0C1BF68C72370C723367ECF3688D73A
:1023C00010FA460931F9073688C786F0C7A02B36C0
:1023D00088D711FA46F42344992336882E03C786FA
:1023E000F0C7A06844243688D711FA3C062B46F47F
:1023F0002344DA2336F92E03F836972E02C7F04627
:10240000A1303697C71404F836F92E03C73C01688B
:10241000702E3C0268052F3C0368112F3C0468BDF8
:102420002F3C0568B3243C096851243C0A685E24AB
:102430003C0B686B243C0C687B243C0D688B243C73
:102440000E68982436982E033E0006C916A84496B6
:102450002046052F3656C7A070A22444A72446055F
:102460002F3656C7A068A22444A72446052F365607
:10247000C7A068A72450A22444A72446052F365697
:10248000C7A068A22470A22444A72446052F36566C
:10249000C7A050A22444A72446052F3656C7A068DB
:1024A000A7243604448F3036573E0044102EC4040F
:1024B00004E00736562E02C73603F8A068A224723D
:1024C000692E46E72D3654CF360BF9365C260C2E96
:1024D00002DD0E0446F62E46A2243603C7A070F293
:1024E00024360C46AA3046112F360BCF09F948E1A5
:1024F0002407360C46AA3046BD2F360BCF09F948C3
:10250000F2240736982E03C786F0C73E0036832E86
:1025100004F8A02B7090363C0168A3253C0268F0BB
:10252000253C0368E6253C0468AA353C05680F266F
:102530003C066846363C0768FF253C08685B01009E
:1025400036502E03C7A02B36822E043E0036822E34
:1025500004CF08F9160236BC2E034698251E032622
:102560005046DA2068872536822E04C73C08484D3D
:102570002536822E043E0044BC3636982E033E009B
:1025800006C616C144962036822E04CF36982E03F6
:10259000D7460931F944AD20C1021148992586F08A
:1025A00003280736562E02C7A050D725360C46986A
:1025B0003046E72D36533E00461B2E360C46A130E2
:1025C00046052F3656C7A068E125360C468F3036B3
:1025D0001446AA3046702E46E72D36533E00441B63
:1025E0002E360C448F3036562E02C7A070692E0747
:1025F00036562E02C7A02B50A2243614448F3046E4
:10260000E72D3654C7468221367F2E033EFF07460C
:10261000E72D3654C7362397367F2E033EFF70676B
:10262000352BD006A0468221114825260736812E5B
:1026300004C7A06840263E003684F72E0544983033
:1026400036F82E033E0036501E042688C73C01484B
:10265000562636523E0036512E0346D930C730CF6B
:102660003046D930BF486E2630C1BF68972646AE87
:102670002436F82E03CF08F9363F2E04C1BF485642
:1026800026363F2E04CF08F9C13C15509220365112
:102690002E030E0246F62E46D93046983044AD2021
:1026A00036502E03DD266444B12636642E03DD2623
:1026B00050CF0844F62E36EA2E0246512136002E1F
:1026C00003460C21C7A068BD2636DD2E021E032658
:1026D0000046DA2048EC2636002E06C7A068B6264B
:1026E00046512146FF2046612144DB2636E22E0278
:1026F00026001E03260046DA206827291E0326002E
:1027000036E62E0246DA204839272E0336F43E06F6
:10271000303E00363F2E043E01363D3E0036503EF0
:102720000036883E00303E002E0636003E002E0564
:102730003E003048302744B62626BA1E022E033605
:102740000046DA20685A0136BF2E021E03260046D4
:10275000DA20685A0136F02E033E06303E0046006D
:102760002036832E03C7A050712706D316D944966E
:102770002036E0C7A068782936F03E06303E0036A5
:10278000812E033E0136E83E003681463C2868A291
:10279000273CB070B7273CBA50B72736E82E03461F
:1027A000CC2036812E03CF08F936F02E03D730F730
:1027B000EAC709B948892736F02E03DF30F7EBC79F
:1027C000A048C72744EE2736E82E031E0326E0461E
:1027D000DA2070242848EE2736F02E03D730F7EAA7
:1027E000CF08464D2836832E03C7A068B62636F09C
:1027F0002E03DF30E736002E03CF08466E2836F072
:102800002E03DF30E736002E03460F2844BD26CFC7
:1028100008C746FF2046D930F846FF2046D9300980
:102820004811280736F02E03DF30E7EBF4CF0846D7
:10283000AE2836F02E03FB30FC447F272E03CF3624
:10284000F0DF30E746AE28EBF4C73CA007467C211A
:10285000D7464B21FAC2A068602846FF20444D2885
:1028600036F42E03DF30C791F8033119FB0736F435
:102870002E03C730F7E8467C21C53C1F5092204606
:102880004B21D7467C21FA464B2146A8286896283A
:1028900046742144822836002E03CF0836F4DF30F8
:1028A000E746AE28FC31FB07C5BB0BC6BC07C4819D
:1028B000E003180706DE16C344962036E02E03C751
:1028C000A068D22836F62E0246512136E02E034665
:1028D000512146612136812E043E0044B62606C4AD
:1028E00016DA44962006C616D844962006C916CE97
:1028F00036902E023E004496201E032600462329D1
:1029000046BA30CF46FF2046F82068CA3046CA3063
:1029100036002E03C7BC68202946CA3044FD280073
:10292000260007200B1807363B2E043E0036853E56
:102930000036F02E033E06303E00445D2936F02E70
:1029400003DF30E7EBF4CF0846AE2836F02E03FB6A
:1029500030FC36E02E03C7A068B626C0C036F02E85
:1029600003D730F7EA1E032600460F2836002E0351
:10297000C7A068B62646002036832E03C73C0168F0
:102980003D293C0268062C3C0368082B3C04686B1C
:102990002B3C0568D4293C0668E42C3C0768632D71
:1029A0003C0868E3333C09688D2C3C0A68B32C3C36
:1029B0000B6885373C0C68B6263C0D68FA2A3C0E3D
:1029C000486A2746FB3636862E03CF3682F946A064
:1029D0002644112B36822E03C73600BF70E52946E8
:1029E0006121443D2946AD2036822E03CF0836832F
:1029F000F9368346A0203CA768722A3CA268722A56
:102A00003CAC68122A3CBB68122A36834603214834
:102A1000F1293682CF0836BEF93683CF0936BFF9A1
:102A200036F7C7A0682C2A3E0044442A4694213633
:102A30007F2E03C7A036482E023EFF6ABB2A367F90
:102A40002E033E00368346A0203CAC6ADE2A368345
:102A50002E03CF3682F93600C1BF70E52936004615
:102A6000A0203CAC683D293CBB683D29466121441F
:102A70003D2936F7F846AD203683CF083684F9363F
:102A80008446A02036F7BF68A22A468221368446B3
:102A90000321487F2A06C916D136F72E033E00448B
:102AA00096203684CF3682F9C13600BF48E52946E4
:102AB000612136F72E033E00443D2936562E02C7CB
:102AC000A068CD2A30C7A068D72A44603206A04645
:102AD000822106B044822136483E004460323600EE
:102AE000C73683973336232E02C724F0041097D0BD
:102AF00006A04682211148F22A0746A02636822ED9
:102B000003CF3683F944502B46AD2036642E033E66
:102B10000036822E03CF083683F9368346A020681C
:102B2000412B3CBD68502B3CA8483A2B46F5363625
:102B3000862E03CF3683F944412B36642E0346CCD0
:102B4000203683460321481A2B06CC16C54496200E
:102B500036832E03CF0836BEF93600CF36BFF9468E
:102B6000942146AA26462D26443D2936E82E033ECA
:102B7000003682CF083683F9368346A020688F2B33
:102B80003CB070972B3CBA50972B36E846CC203699
:102B90008346032148782B36F02E033E06303E0054
:102BA00046AD2036843E013684463C2868BC2B3C2A
:102BB000B070CF2B3CBA50CF2B46C82036842E03A2
:102BC000CF08F936F0D730F7EAC709B948A72B364E
:102BD000502E031E0326E846DA20685D2936F02EC3
:102BE00003DF30E7EBF4CF0846AE2836F02E03FBC8
:102BF00030FC36F4C3BF48A02B30C4BF48A02B061E
:102C0000D516CE44962036822E03CF0836BEF9461E
:102C1000AD2036D02E0246F928C4A048312C360B00
:102C20002E0446F928C4A048312C06C916C644967D
:102C30002036BF2E0321FC46942136562E02C7A013
:102C4000683D2936BF2E03C704053682F8C808360A
:102C500084F9368446A02048652C368446032148F2
:102C6000522C442A2C3CB0706F2C3CBA706B2B3623
:102C700000C7368497C808D73600F9F21E0326012C
:102C800046F62E36823E0146372044782936E02E1D
:102C900003DF1819689C2C36F0DF30E7363B2E0432
:102CA000C704023C1150D62CF8363E86F0FB30FCAF
:102CB000446B2B363B2E04C7140270DD2CF8040243
:102CC000363E86F0DF181968B62630E736F02E0358
:102CD000FB30FC443D2906C716D344962006D21685
:102CE000D444962046AD203682CF083683F9368309
:102CF00046A02068112D3CAC68222D3CA8480E2D22
:102D000046003736862E03CF3683F944112D46C848
:102D100020368346032148EE2C46332D462D26448B
:102D20003D2946332D462D262E033683CF3682F994
:102D300044E42C3650C786F0C73CA4484F2D36508B
:102D4000CF09F9465E2D4691213654F8441B2E36A4
:102D5000642E0306BF468221460C21440F312E0209
:102D600044A72436642E033E0036663E0036852E88
:102D700004CF08F936F02E03DF30E7C10202045C0D
:102D8000F02E04FB30FC36D52E0246F928C4A048AC
:102D9000992D06C616C544962036822E03CF0836D6
:102DA00084F93683FC368446A02068B72D3CBD6884
:102DB000C22D366446CC20368446032148A52D44D6
:102DC000922D3684CF0836BEF93683CF0936BFF947
:102DD00046942146AA2636642E03C73C01487E3518
:102DE00036663E00447E3536562E02C73640F8A081
:102DF00072692E36570617CF080970102E9170E5AC
:102E000028D036560E034674301148022E44642EE4
:102E10003656A8F831F831F831F8070E17C12E02EE
:102E20003657A068272EF931C73640F8A050372E04
:102E30000E04365346533036560E04C7A0484A2E69
:102E40003109483B2E3657A8F80736530E04466A18
:102E500030C7A0705D2E30CF09F9444A2E36560E89
:102E6000034674303640C7A01336540E0344533023
:102E700036562E02C7A048842E3654DDE6365C0E48
:102E80000444F62E365EC7A02B3657C7365FBF68A0
:102E9000C82EC8C799509B2EC8A8993C1870AA2E56
:102EA000C736579733365444792EC736579770BE76
:102EB0002ED0365746E72E1148B22E44C82ED036B3
:102EC0005F46E72E1048BF2E36533E00365B3E006D
:102ED000365746E72E365F46E72EDD26530E04466C
:102EE00042300E00441D2ECF08F9310E04C7A05009
:102EF000743012447530C73046D930F83046D93076
:102F0000092B44F62E36542E020E034653304470DD
:102F10002E46612F365FC73657870401F836423E8A
:102F20001736560E0346743062A32F36660E0646D9
:102F300074303642D711FA48212F36660E06467491
:102F4000303663C712A072AD2F3653E6DD36630EFE
:102F50000446F62E0E00461D2E3641C7A00B4469CE
:102F60002E36602E020E08A8F8300948682F0E048D
:102F70003658F8300948722F36413E013656C7A000
:102F800070942F365EC7A0133641D711FA365C0E07
:102F9000034453303641D711FA36540E03465330AA
:102FA00044832F2661DD36590E064442300E030657
:102FB0004087F83006008F0948B22FF80746612F86
:102FC0003656C7A068DE28365FC73657970401F823
:102FD00036423E17462C3070E92F265C36590E03D8
:102FE00046F62E06011A44EA2FA836640E03466BF5
:102FF00030365C0E03466A303642D711FA48D42F79
:10300000462C307023303664C70401F80600308F38
:10301000F80600308FF85023300E034674303657D0
:10302000CF08F9366326530E0444512F2659DD3656
:10303000540E0346F62E2659365C0E03467E30C7E4
:10304000A007A0C746D9308FF8092B3046D93030B9
:10305000444330C72CFF0401F81AD8092B30C72C81
:10306000FFE0C31206008C445830A0C712F8092BA9
:1030700030446B30A0C71AF8092B31447530A0C713
:1030800046D9309FF8092B3046D93030447F301E66
:103090000226540E0444F62EE6DD36542E0244A5D4
:1030A000301E02265C0E0444F62E46BA3036542EEC
:1030B0000246A13046CA30448F30C5CE36802E023B
:1030C000F830F930FB30FCE8F10736802E02C730CB
:1030D000CF30DF30E7E8F1C707D5EBDAD6F4E20707
:1030E0002E023690D7101148F330F4EBD710460972
:1030F000313E0036902E02D710FAF4EB460931C764
:10310000A02E020B36903E0007C682F0032807E689
:10311000DD2E023668A80E08F8300948183136430B
:103120000E04F8300948223146E0303CAB683831B3
:103130003CAD483B313643F846E0303CAE686C313C
:103140003CC5687C313CA0683831A068B4313CB0E3
:1031500070EC283CBA50EC28366ED006F8A74838F8
:10316000313645CF08F9461932443831C83646C79A
:10317000A048EC283645F830F944383146E0303C78
:10318000AB688C313CAD488F313644F846E030A016
:1031900068B4313CB070EC283CBA50EC28240FC81D
:1031A000366F0603BF70EC28D7C7A01212821281B7
:1031B000F8448C313643C7A068C231366C0E0346E2
:1031C0005330366BA8F8DD26530E0446F62E461B08
:1031D0002E3644C7A0366F68E031C72CFF0401F8D3
:1031E0003646C7A068EB313645A897366F87F8702A
:1031F00006322B36882E0246AA3046112F366FD75C
:1032000011FA48F33107368C2E0246AA3046112FA8
:10321000366FCF08F94806320746BA30366BC224FB
:103220000FF82668366CDD0E0346F62E366C0E035C
:10323000466A30366C0E03466A30266C36680E03DA
:10324000464230366C0E03466A30366AA8F831F8CA
:10325000366BC73668F8266C0E0346423044CA30D7
:103260002E02366F3E003656C7A070723206A0445A
:103270007B3236540E0346533006AD468221364823
:10328000C7A068963236570617CF08097096329154
:1032900070963244A43236483E0006B0468221067B
:1032A000AE468221365706FF87F850C9320604879A
:1032B00050DB3236882E0246AA3046112F366FD7A1
:1032C00011FA3657C7A044AA32368C2E0246AA30CD
:1032D00046112F366FCF08F944C2322674DD3654BA
:1032E0000E0346F62E36773E0036740E03466A30DD
:1032F000467E333657CF08F968053336770E0446D5
:10330000743044F33236473E073677C7A0686033DF
:103310003677C7A04830333648C7A0682F33366F9A
:10332000D71110502F333676C724E0482F3307A823
:1033300004B04682213648C7A0484A333647D711E1
:10334000FA68AB33467E33441033366FD711FA48F0
:10335000573306AE4682213647D711FA2B44443301
:10336000366FD711FA3676C7A048353331C7A04833
:10337000353331C7A0483533366FF84435333677A7
:103380003E003674DD26700E0446F62E36740E04AA
:10339000466A3036740E04466A30367026740E045F
:1033A00046423036740E04466A3007366FC7A02B8B
:1033B00006C5468221C7A070BF3306AB44C6332C76
:1033C000FF0401F806AD4682210E00C7140A70D62C
:1033D00033F80844CC3306B081468221C704B04696
:1033E00082210736642E033E003682CF083681F9EB
:1033F000368146A02068FD33366446CC20368146AF
:10340000032148F0333664C73C0148113436663E28
:103410000036852E04C70202045E2E04F01E032629
:10342000650E0246F82068303406C616CE44962053
:1034300036F02E03DF30E730FB30FC36852E04C734
:103440000202045CF0DF30E736F02E03FB30FCEBC9
:10345000F41E032600460F2836D52E0246F928C44E
:10346000A0682934040236BE2E03F836D82E024650
:10347000F928C4A048983436042E02468F3036C44A
:1034800046983036002E03CF36BFF946942136C811
:103490002E0246983044C1342136BF2E03FC469498
:1034A0002136C82E0246983036BF2E03C704053198
:1034B000F83600CF36BFF946942136C42E0246981E
:1034C0003036642E033E00361C2E0446F928C4A074
:1034D00036822E03F868293404033683F83683468F
:1034E000A02068EF343CBD68FA34366446CC203600
:1034F0008346032148DD3444293436822E03C70431
:103500000336BEF83683CF0936BFF946942136C458
:103510002E0246AA3046702E36CC2E024698303601
:10352000C846AA3046052F36C6C7A03656C76829F2
:1035300034705035A070573568573536F32E03E791
:1035400031DF31FC31FB36852E04CF09F9443D29AA
:10355000A0505735443B3536CC2E02468F3046AA14
:1035600026462D26443D29068D4682214682213657
:10357000232E023E013654C7A0332B441226368533
:103580002E04C70202045EE0DD36652E030E0246FD
:10359000F62E462D26443D29367E3E0046D4223660
:1035A000972E02C73C982B446A27360C2E02469869
:1035B000303656C7A0703F3668A724360FC7A070B4
:1035C000CB351AC8060012F844DC35C8A891A01AF9
:1035D000C8060088F868D93508A891C8360BF936AE
:1035E00004261CDD0E0446F62E46A72436244698F3
:1035F00030361C468F30360C46A13046BD2F361C67
:1036000046A13046702E3657CF09F9361C46983001
:10361000362446A13046052F3657C73CF77033365F
:1036200031C7A0683336361CDD26240E0446F62E3C
:1036300044F135360BC7361F87F8361C448F3006E9
:10364000D316D144962036342E02468F3036284683
:10365000A13046112F363046A13046702E36344602
:1036600098303657C71410F846E72D36533E0036CB
:10367000573E00461B2E3657C70410F8363446A175
:103680003046052F36344698303657C71410F807A1
:1036900036562E02C7A070EE3646E72D3654C714B4
:1036A000010202D036832E04C72CFF020204502EE2
:1036B00004F03030C782F02E05448F3036822E045D
:1036C000CF08F91602364C2E044698251E032650C4
:1036D00046DA2068E43636822E04C7363DBF48BC41
:1036E00036447A2536822E04A89FF844872506CFD3
:1036F00016D244962046AA26440037368244023722
:1037000036832E03CF0836BEF93686F9368646A0B4
:10371000203CA96825373686460321480C3706C168
:1037200016C64496203686CF0936BFF936873E0046
:1037300036872E03CF08F91602364C2E04469825FC
:1037400026501E0346DA20685A3736872E03C736BE
:103750003D2E04BF483037447A2546942146E72D54
:1037600036872E03CF1602364C2E0446982530306D
:10377000D736542E02C7140102028236842E04F872
:1037800036813EFF0746AD203682CF083683F936B4
:103790008346A020689F373CA868AA3746C82036D1
:1037A00083460321488F37446F3836863E0036867D
:1037B0002E03C70202044C2E04F026501E0346DAE4
:1037C0002068513836862E03CF08F9363D2E04C7BF
:1037D00009B948AE37363D2E04CF08F9363EF936E2
:1037E000862E03F9C70202044CE01E0436502E0355
:1037F000460F2846AD2036832E03CF083684F9368F
:103800008446A0206819383CA96824383CB0706F01
:10381000383CBA506F3846C820368446032148FFEA
:1038200037446F3836502E03460F3146E72D365455
:10383000C70202D0363E2E04C7140102020452F021
:103840002E04CF0404F0C182F836842E03CF3683D1
:10385000F9368346A0203CAC68663836834603219F
:10386000485138443D293683CF3682F9448537069E
:10387000C416C544962005EFADF00501E06B40C5C8
:10388000E3F541C5E4F542C5E5F543C5E6F5E6AF28
:1038900014D0010EE06FE3C503F5E4C504F5E5C5FA
:1038A00005F5E6C506F5DCECACF003C5E3F504C5AB
:1038B000E4F505C5E5F506C5E6F5000EE26F000E78
:1038C000E16F68C5D0F569C5D1F5E051D8B40DD028
:1038D000E051D8A404D0000EC66F2B0E03D0000E0A
:1038E000C66F2D0EC56FC5C5E0F5E3C503F5E4C58C
:1038F00004F5E5C505F5E6C506F5D7ECA9F0030422
:103900000410D8A42AD00501E051D8B409D0E0C5EC
:103910006FF5D007D8A0D107000EE26F010EE16F5E
:103920006F0EE125036E050EE221046E720E056E28
:10393000C2ECACF0FD0ED027FF0ED1233EC514F52E
:103940003FC515F56F0E166E050E176ED0C518F52E
:10395000D1C519F5E0ECABF01200E3C503F5E4C501
:1039600004F5E5C505F5E6C506F5D7ECA9F0035065
:103970000410D8A418D00501E051D8B409D0E0C58E
:103980006FF5D007D8A0D107000EE26F010EE16FEE
:103990006F0EE125036E050EE221046E760E056EB4
:1039A000C2ECACF0C7D7000E0501E76F000EE86F60
:1039B000800EE96F3F0EEA6F000ECF6F000ECE6FE4
:1039C000E3C503F5E4C504F5E5C505F5E6C506F56B
:1039D000000E076E000E086E000E096E000E0A6ED5
:1039E0009BECABF0D8A00CD0BED0D2C5E7F5D3C5C8
:1039F000E8F5D4C5E9F5D5C5EAF50501CE4BCF2BE1
:103A0000E7C511F5E8C512F5E9C513F5EAC514F5E2
:103A1000000E156E000E166E200E176E410E186EFB
:103A200018ECA2F011C5D2F512C5D3F513C5D4F523
:103A300014C5D5F50501D251E35D036ED351E459A8
:103A4000046ED451E559056ED551E659066E1BEC4E
:103A5000ACF006BECAD706500510041004E1020EF1
:103A6000035CD8A0C2D7D2C52AF5D3C52BF5D4C5DF
:103A70002CF5D5C52DF5E3C52EF5E4C52FF5E5C527
:103A800030F5E6C531F56FECA9F0D8A0AED7050149
:103A9000E751E35D036EE851E459046EE951E559DD
:103AA000056EEA51E659066E1BECACF006BE08D076
:103AB00006500510041043E1020E035CD8B03FD05D
:103AC000E7C5E3F5E8C5E4F5E9C5E5F5EAC5E6F5DA
:103AD0004AD0E7C511F5E8C512F5E9C513F5EAC501
:103AE00014F5000E156E000E166E200E176E410EA8
:103AF000186E30ECA5F011C5E7F512C5E8F513C551
:103B0000E9F514C5EAF50501CE07D8A0CF07E751BE
:103B1000E35D036EE851E459046EE951E559056E21
:103B2000EA51E659066E1BECACF006BEC9D706504A
:103B30000510041004E1020E035CD8A0C1D7E3C550
:103B40002AF5E4C52BF5E5C52CF5E6C52DF5E7C549
:103B50002EF5E8C52FF5E9C530F5EAC531F56FEC6E
:103B6000A9F0D8A0B6D744C5C8F5C8C5C9F50501A0
:103B70006BBF05D06AC5C1F56BC5C2F504D0000E98
:103B8000C26F060EC16FC1C5CCF5C2C5CDF5CC4B19
:103B9000CD2B660EC919D8A416D0CFAF0CD0000E0D
:103BA000E76F000EE86F800EE96F3F0EEA6F000EC0
:103BB000CF6F000ECE6F670EC819D8B404D0CE51A7
:103BC000CC27CF51CD23000ED76F000ED66FE3C5A3
:103BD000D8F5E4C5D9F5E5C5DAF5E6C5DBF5E7C501
:103BE000D2F5E8C5D3F5E9C5D4F5EAC5D5F57BD05E
:103BF000D8C511F5D9C512F5DAC513F5DBC514F52D
:103C0000E7C515F5E8C516F5E9C517F5EAC518F5D0
:103C100030ECA5F011C52AF512C52BF513C52CF50E
:103C200014C52DF55AECA7F02AC5DCF52BC5DDF53A
:103C30002CC5DEF52DC5DFF5DCC503F5DDC504F5C6
:103C4000DEC505F5DFC506F53DECAAF003C5CAF5EE
:103C500004C5CBF5D8C52AF5D9C52BF5DAC52CF5A1
:103C6000DBC52DF5DCC515F5DDC516F5DEC517F58B
:103C7000DFC518F5E7C511F5E8C512F5E9C513F577
:103C8000EAC514F518ECA2F011C52EF512C52FF5F2
:103C900013C530F514C531F540ECACF02AC5D8F5A4
:103CA0002BC5D9F52CC5DAF52DC5DBF5E7C511F522
:103CB000E8C512F5E9C513F5EAC514F5000E156E51
:103CC000000E166E200E176E410E186E30ECA5F029
:103CD00011C5E7F512C5E8F513C5E9F514C5EAF510
:103CE0000501D64BD72BCC51D65DD751800A456EF6
:103CF000CD51800A4558D8A07BD7E7C511F5E8C556
:103D000012F5E9C513F5EAC514F5000E156E000E9F
:103D1000166EA00E176E400E186E18ECA2F011C5AC
:103D2000DCF512C5DDF513C5DEF514C5DFF5D8C524
:103D30002AF5D9C52BF5DAC52CF5DBC52DF5DCC583
:103D40002EF5DDC52FF5DEC530F5DFC531F56FEC9D
:103D5000A9F0D8B003D0000E050118D0D8C503F5DE
:103D6000D9C504F5DAC505F5DBC506F5DCC507F5EB
:103D7000DDC508F5DEC509F5DFC50AF59BECABF03E
:103D8000D8A00BD00501CAB108D0000EDC6F000E20
:103D9000DD6F000EDE6F000EDF6FE3C503F5E4C5D7
:103DA00004F5E5C505F5E6C506F5DCC507F5DDC591
:103DB00008F5DEC509F5DFC50AF5ACECA3F003C5CF
:103DC000D8F504C5D9F505C5DAF506C5DBF5D8C5BE
:103DD0002AF5D9C52BF5DAC52CF5DBC52DF5000E76
:103DE000156E000E166E200E176E410E186ED2C59F
:103DF00011F5D3C512F5D4C513F5D5C514F518ECD6
:103E0000A2F011C52EF512C52FF513C530F514C556
:103E100031F56FECA9F0D8A024D00501CE4BCF2B03
:103E2000D2C511F5D3C512F5D4C513F5D5C514F512
:103E3000000E156E000E166E200E176E410E186ED7
:103E400018ECA2F011C5D2F512C5D3F513C5D4F5FF
:103E500014C5D5F5660E0501C919D8A402D0CC4BFE
:103E6000CD2BD2C5E7F5D3C5E8F5D4C5E9F5D5C561
:103E7000EAF5CEC5BFF5CFC5C0F50501C76B000E8D
:103E8000C46F000EC36F000ED76F000ED66FCDD07B
:103E9000D8C511F5D9C512F5DAC513F5DBC514F58A
:103EA000E7C515F5E8C516F5E9C517F5EAC518F52E
:103EB00030ECA5F011C52AF512C52BF513C52CF56C
:103EC00014C52DF55AECA7F02AC5DCF52BC5DDF598
:103ED0002CC5DEF52DC5DFF5DCC503F5DDC504F524
:103EE000DEC505F5DFC506F53DECAAF004BE06D03B
:103EF000045013E10A0E035CD8B00FD0DCC503F503
:103F0000DDC504F5DEC505F5DFC506F53DECAAF017
:103F100003C5CAF504C5CBF505D0000E0501CB6F6E
:103F2000090ECA6F0501C751D8B4C0AF20D06F0EBB
:103F3000E125D96E050EE221DA6E2E0EDF6EE14B21
:103F4000E22BD007D8A0D107010EC76F10D06F0E9B
:103F5000E125D96E050EE221DA6E300EDF6EE14BFF
:103F6000E22BD007D8A0D107C307D8A0C407C351FC
:103F7000C411D8A4ECD76F0EE125D96E050EE2214D
:103F8000DA6ECA51300FDF6EE14BE22BD007D8A0BA
:103F9000D107D8C52AF5D9C52BF5DAC52CF5DBC56F
:103FA0002DF5DCC515F5DDC516F5DEC517F5DFC544
:103FB00018F5E7C511F5E8C512F5E9C513F5EAC529
:103FC00014F518ECA2F011C52EF512C52FF513C586
:103FD00030F514C531F540ECACF02AC5D8F52BC549
:103FE000D9F52CC5DAF52DC5DBF5E7C511F5E8C522
:103FF00012F5E9C513F5EAC514F5000E156E000EAD
:10400000166E200E176E410E186E30ECA5F011C51D
:10401000E7F512C5E8F513C5E9F514C5EAF505019C
:10402000BF07D8A0C007D64BD72BCC51D65DD751F0
:10403000800A456ECD51800A4558D8B008D0E2BFFD
:1040400027D7E25104E14B0EE15DD8A021D7000E45
:10405000D76F4F0ED66F6F0ED625D96E050ED721AE
:10406000DA6EDF6A6F0E456E050E466EE151455EF3
:10407000E251465AD6514524036ED7514620046E6C
:104080006F0E056E050E066EE1C507F5E2C508F573
:1040900063ECACF0E151D65DE16FE251D759E26FCC
:1040A000E051D8B402D0010E01D0000ED66FD76B0C
:1040B000E051D8B40BD0E107D8A0E2076F0EE1259C
:1040C000D96E050EE221DA6EE0C5DFF4D651D05F7D
:1040D000D751D15B3EC514F53FC515F56F0EE125EF
:1040E000166E050EE221176ED0C518F5D1C519F56B
:1040F000E0ECABF01200080E0001B16F0401006BA0
:10410000200EBE6EDF0EC66E0169086BC7680969B6
:10411000106BC06ADF0EC86E1169186BC968196927
:10412000206BCA682169089BC79A180E02010E6F9E
:1041300004010899C7981A0E02010D6F696A786A1E
:10414000020E616E020E706E686A776A6A6A796A38
:10415000000E646E7F0E636E000E6C6E2C0E6B6E26
:10416000000E7B6E230E7A6E63C472F464C473F423
:10417000840E696E000000000000000000000000D6
:10418000000000000000000000000000000000002F
:104190000000840E786E0201616B010E626F0C0EDE
:1041A000636F0D0E646F020E656F0B0E676F00017B
:1041B000D56B060ED86F020ED96F350EDA6F7F0EF3
:1041C000DB6F050EDC6F200EDD6FDE6BDF6BD76BF8
:1041D000940ED66F010ED56F060ED86F020ED96FF2
:1041E000360EDA6F7F0EDB6F050EDC6F200EDD6F93
:1041F000DE6BDF6BD76B940ED66F020ED56FD86B6C
:10420000010ED96F040EDA6F7F0EDB6F010EDC6FCB
:10421000080EDD6F100EDE6F400EDF6FD76B820E63
:10422000D66F030ED56FD86B010ED96F040EDA6FFF
:104230007F0EDB6F010EDC6F080EDD6F200EDE6F70
:10424000400EDF6FD76B820ED66F010E0201D56F65
:10425000A00ED46FD189D18B0401009FC68E070EAA
:104260000201766F0401009DBE8CC69C260E0201E1
:10427000076FD28F000E116E000E126E7A0E136E43
:10428000470E146E010E63240501ED6F000E6420CD
:10429000EE6FEDC503F5EEC504F5056A066A000E7E
:1042A000CFECA8F003C515F504C516F505C517F53F
:1042B00006C518F530ECA5F011C5EFF512C5F0F5FF
:1042C00013C5F1F514C5F2F5510E5B6EEFC55CF543
:1042D000F0C55DF5F1C55EF5F2C55FF5F3ECACF048
:1042E0006BC403F56CC404F5056A066A000ECFECD6
:1042F000A8F003C511F504C512F505C513F506C5EB
:1043000014F5000E156E000E166E7A0E176E410E25
:10431000186E18ECA2F011C5F3F512C5F4F513C52B
:10432000F5F514C5F6F52A0E5B6EF3C55CF5F4C51C
:104330005DF5F5C55EF5F6C55FF5F3ECACF07AC456
:1043400003F57BC404F5056A066A000ECFECA8F0FD
:1043500003C511F504C512F505C513F506C514F519
:10436000000E156E000E166E7A0E176E410E186E48
:1043700018ECA2F011C5F3F512C5F4F513C5F5F567
:1043800014C5F6F5010E5B6EF3C55CF5F4C55DF57D
:10439000F5C55EF5F6C55FF5F3ECACF0000E050172
:1043A0006D6F000E6C6F000E6C25F66E000E6D21A9
:1043B000F76EF86A010EF822000E6C25D96E060E13
:1043C0006D21DA6E0800F5C4DFF46C4B6D2B1F0E07
:1043D0006D5DD8A0E8D7550E0401596FAA0E596F2C
:1043E0005991080E5D6F000E5E6F000E5F6F550EE7
:1043F000596FAA0E596F5981AE9AB492B59AB79A6D
:10440000B892B992BC92BD929E8AA482A59AA79AAC
:10441000A892A992AC92AD92D68EE06A010EF86E87
:104420000001D56B42C602F541C601F5D08AFFD71F
:104430001450800B1D6E14501424236E13BE238061
:104440002350D8B40DD02328D8A408D0000E116E64
:10445000000E126E000E136E000E146E138E08D036
:10446000000E116E000E126E000E136E000E146E12
:104470001850800B1D1A185018241E6E17BE1E806F
:104480001E50D8B40DD01E28D8A408D0000E156E2A
:10449000000E166E000E176E000E186E178E08D0E6
:1044A000000E156E000E166E000E176E000E186EC2
:1044B0001E50D8B403D02350D8A409D0000E116EDA
:1044C000000E126E000E136E000E146E12001750C6
:1044D0001102F3C428F5F4C429F528501F6E206A90
:1044E000216A226A2950246E256A266A276A165094
:1044F0001202F3C428F5F4C429F528501F26000E33
:1045000020222122222229502426000E2522262282
:10451000272215501302F3C428F5F4C429F52850B6
:104520001F26000E20222122222229502426000E9E
:1045300025222622272221C522F520C521F51FC5C7
:1045400020F51F6A15501202F3C428F5F4C429F5AA
:1045500028501F2629502022000E2122000E222240
:1045600016501102F3C428F5F4C429F528501F266B
:1045700029502022000E2122000E222221C522F5E0
:1045800020C521F51FC520F51F6A15501102F3C47F
:1045900028F5F4C429F528501F2629502022000EA2
:1045A0002122000E222217501202F3C428F5F4C46F
:1045B00029F52850242629502522000E2622000EF7
:1045C000272216501302F3C428F5F4C429F5285005
:1045D000242629502522000E2622000E27221750BD
:1045E0001302F3C428F5F4C429F52850196E295094
:1045F0001A6E1B6A1C6A1BC51CF51AC51BF519C56A
:104600001AF5196A195024261A5025221B50262201
:104610001C50272222502426000E25222622272243
:1046200021C522F520C521F51FC520F51F6A1E50A2
:1046300023C519F51A6A1926000E1A22820E1924AA
:10464000286EFF0E1A20296E0FD0D89024362536FA
:104650002636273622BE2480D8901F3620362136B3
:1046600022362806D8A0290626AEEFD71E6A22AE2B
:1046700017D0FF0E1F14196EFF0E20141A6EFF0EB6
:1046800021141B6E7F0E22141C6E19501A101B1061
:104690001C10D8B403D0010E1E6E02D024B0FBD77C
:1046A0001E50D8B41FD0010E2426000E252226222B
:1046B000272227A017D024C519F525C51AF526C528
:1046C0001BF527C51CF51C341C321B321A3219325B
:1046D00019C524F51AC525F51BC526F51CC527F5F2
:1046E000284A292A29BE0DD0295003E12828D8A01C
:1046F00008D0000E246E000E256E800E266E7F0EF2
:104700001FD029BE05D029500DE12804D8B00AD009
:10471000000E246E000E256E000E266E000E276E13
:104720001D6A0FD028C523F5FF0E2416FF0E25168F
:104730007F0E2616000E271623B0268ED890233023
:10474000276E1D50271224C511F525C512F526C563
:1047500013F527C514F512000650800B0F6E065096
:104760000624116E05BE11801150D8B40ED0112848
:10477000D8A408D0000E036E000E046E000E056E65
:10478000000E066E058E066A08D0000E036E000E3F
:10479000046E000E056E000E066E0A50800B106E41
:1047A0000F501018D8A40F8C0A500A24106E09BE9E
:1047B00010801050D8B40ED01028D8A408D0000E05
:1047C000076E000E086E000E096E000E0A6E098E4E
:1047D0000A6A08D0000E076E000E086E000E096E01
:1047E000000E0A6E1150105CD8B022D00FAC02D06F
:1047F000800E0F1A11C512F510C511F512C510F56E
:1048000003C512F507C503F512C507F504C512F572
:1048100008C504F512C508F505C512F509C505F565
:1048200012C509F506C512F50AC506F512C50AF541
:10483000126A115010C50BF50C6A0B5E000E0C5A73
:104840000CBE2CD00C5004E11A0E0B5CD8A026D064
:104850000350041005100610D8B402D0010E01D088
:10486000000E126E000E036E000E046E000E056E3A
:10487000000E066E10C511F515D012A005D0D89007
:1048800012300109126E02D0D890123203B0128E8B
:1048900006340632053204320332112A1050115CFC
:1048A000D8A0EBD70FBC28D01150D8A409D0000E47
:1048B000036E000E046E000E056E000E066E1200F2
:1048C0000750032608500422095005220A500622E8
:1048D00006A071D012A005D0D89012300109126E36
:1048E00002D0D890123203B0128E0634063205324E
:1048F00004320332112A5FD00750035C0850045879
:10490000095005580650800A0B6E0A50800A0B5851
:10491000D8B025D00350075C0B6E045008580C6EBD
:10492000055009580D6E06500A580E6EFF0E0B24E6
:10493000036EFF0E0C20046EFF0E0D20056EFF0EA1
:104940000E20066E800E0F1A126C1250D8A40FD0D3
:10495000010E0326000E04220522062208D007506D
:10496000035E0850045A0950055A0A50065A03506B
:10497000041005100610D8A41CD01250D8A419D0C9
:10498000000E036E000E046E000E056E000E066E25
:104990001200D890033604360536063612BE038060
:1049A00012A002D0D88001D0D89012361150D8A4CD
:1049B000110605AEEED7106A12AE0BD012C50BF57C
:1049C0007F0E0B16D8B403D0010E106E02D003B0C8
:1049D000FBD71050D8B420D0010E0326000E0422BD
:1049E0000522062206A018D003C50BF504C50CF558
:1049F00005C50DF506C50EF50E340E320D320C321E
:104A00000B320BC503F50CC504F50DC505F50EC538
:104A100006F51128D8A4112A1128D8B403D01150B2
:104A2000D8A40BD0000E036E000E046E000E056EAF
:104A3000000E066E1150D8B40F6A11A002D0058E78
:104A400001D0059ED8901130066E0FBE068E03C5AC
:104A500003F504C504F505C505F506C506F5120000
:104A60001450800B216E14501424286E13BE28801D
:104A70002850D8B40ED02828D8A408D0000E116E23
:104A8000000E126E000E136E000E146E138E146A5A
:104A900008D0000E116E000E126E000E136E000E86
:104AA000146E1850800B211A18501824296E17BE46
:104AB00029802950D8B40ED02928D8A408D0000EB7
:104AC000156E000E166E000E176E000E186E178E05
:104AD000186A08D0000E156E000E166E000E176EC6
:104AE000000E186E1550161017101810D8A417D0F5
:104AF000000E116E000E126E000E136E000E146E7C
:104B0000800E13127F0E14122150141211C511F5CC
:104B100012C512F513C513F514C514F5120028506B
:104B2000D8A409D0000E116E000E126E000E136E86
:104B3000000E146E1200295028C519F51A6A195E64
:104B4000000E1A5A7F0E1924226E000E1A20236EB0
:104B500011C51DF512C51EF513C51FF514C520F5A9
:104B6000000E116E000E126E000E136E000E146E0B
:104B7000000E246E000E256E000E266E000E276EAF
:104B8000296A28D02950D8B411D0D8901D361E36A5
:104B90001F362036D890113612361336143627BEFB
:104BA0001180D890243625362636273615501D5CC0
:104BB00016501E5817501F5818502058D8A009D00A
:104BC000278C15501D5E16501E5A17501F5A18502C
:104BD000205A292A190E2964D5D71D501E101F10DE
:104BE0002010D8B411D024800FD0D89011361236AE
:104BF0001336143627BE1180D89024362536263633
:104C000027362206D8A0230613AEEFD7296A27AE8F
:104C100017D0FF0E2414196EFF0E25141A6EFF0E06
:104C200026141B6E7F0E27141C6E19501A101B10B1
:104C30001C10D8B403D0010E296E02D011B0FBD7DE
:104C40002950D8B41FD0010E1126000E12221322B3
:104C5000142214A017D011C519F512C51AF513C5E1
:104C60001BF514C51CF51C341C321B321A321932C8
:104C700019C511F51AC512F51BC513F51CC514F598
:104C8000224A232A23BE10D0235003E12228D8A091
:104C90000BD0000E236E2268000E116E000E126EF5
:104CA000000E136E000E146E23BE05D0235010E1CB
:104CB0002204D8B00DD0000E236E000E226E000E1E
:104CC000116E000E126E000E136E000E146E216A2D
:104CD00022C528F528A002D0138E01D0139ED890AB
:104CE0002830146E11D749C5D9F44AC5DAF4DFC4A7
:104CF000F6F4260EF76E000EF86E0800F550250A41
:104D0000D8A4C3D049C5D9F44AC5DAF4DF2A000EC5
:104D10000501696F000E686F68C56EF56A696B6999
:104D200049C503F54AC504F54BC505F54CC506F55F
:104D3000F4ECAAF003C568F504C569F569AF05D0C0
:104D40006E81686D691FD8B0692B49C5D9F44AC511
:104D5000DAF4DFC4F6F4260EF76E000EF86E0800E3
:104D6000F5502E0AD8A413D049C5D9F44AC5DAF4AF
:104D7000DF2A49C503F54AC504F54BC505F54CC501
:104D800006F5F4ECAAF003C56AF504C56BF549C550
:104D9000D9F44AC5DAF4DF50546E54C5F6F4260E41
:104DA000F76E000EF86E0800F5C453F507D0542ACC
:104DB00010D06C0E536E0DD0536A0BD053504C0A6A
:104DC000D8B4F5D72A0AD8B4F4D70A0AD8B4EFD79A
:104DD000F3D754C5F6F4260EF76E000EF86E0800F1
:104DE000F550660AD8B41AD04AD04BC5D9F44CC590
:104DF000DAF4DFC44DF5040EDE26DFC44EF5000EF6
:104E0000DD224DC5D9F44EC5DAF4DEC44FF5DEC45B
:104E100050F5DEC451F5DEC452F507D053504C0AAC
:104E2000D8B4E3D7200AD8B4E0D7542849C5D9F478
:104E30004AC5DAF4DF6E18D047C53EF548C53FF5E0
:104E40004FC540F550C541F551C542F552C543F532
:104E500054C5F6F4260EF76E000EF86E0800F5C481
:104E600044F53DEC9CF0120054C5F6F4260EF76EA6
:104E7000000EF86E0800F550660AD8B4DDD749C5B3
:104E8000D9F44AC5DAF4DF2A120049C5D9F44AC573
:104E9000DAF4DFC4F6F4260EF76E000EF86E0800A2
:104EA000F550046E056A47C506F548C507F54BEC95
:104EB000ABF0E5D760C53AF561C53BF562C53CF599
:104EC00063C53DF52AC53AF52BC53BF52CC53CF528
:104ED0002DC53DF5810E2E6EFF0E2F6E3AC530F5B5
:104EE0003BC531F53CC532F53DC533F5180E05D04F
:104EF000D8903332323231323032E82EF9D7305056
:104F00002E24386E000E2F20396E39BE0FD0395046
:104F100004E1170E385CD8A009D02AC52AF52BC5A4
:104F20002BF52CC52CF52DC52DF5120039BE5BD007
:104F300038C52EF5FF0E2F6EFF0E306E7F0E316ED0
:104F4000000E326E2E6601D007D03234323231324A
:104F500030322F322E2EF6D72FC534F530C535F529
:104F600031C536F532C537F534503A142E6E35500A
:104F70003B142F6E36503C14306E37503D14316E5A
:104F80002E502F1030103110D8B4C7D73AC52EF597
:104F90003BC52FF53CC530F53DC531F5200E05D09C
:104FA000D890313230322F322E32E82EF9D72E50AF
:104FB000D8B408D034503A2635503B2236503C22E3
:104FC00037503D22341C2E6E351C2F6E361C306E31
:104FD000371C316E2E503A162F503B1630503C166F
:104FE00031503D1632D03AC52EF53BC52FF53CC5A4
:104FF00030F53DC531F5200E05D0D8903132303234
:105000002F322E32E82EF9D72E6608D0000E3A6ED7
:10501000000E3B6E000E3C6E000E16D0D8903A3457
:105020002E6E3B342F6E3C34306E3D34316E2E503C
:105030002F1030103110D8B408D0000E3A6E000E88
:105040003B6E800E3C6EBF0E3D6E3AC52AF53BC5E9
:105050002BF53CC52CF53DC52DF51200B492D15071
:10506000F66EE96E000E0224D96EDA6A060EDA22B6
:10507000E8C4DFF4022ACFA6FED7CFB6FED7D150C0
:10508000006E3F0BF76EF750060FEA6E00BC19D0AA
:10509000000E0124D96EDA6A060EDA22DF50C16EE4
:1050A000012ACFAAFED7C96A000E0224D96EDA6A95
:1050B000060EDA2200C5DFF4022ACFB6FED7C96891
:1050C000110000AE48D058D0B7C4C1F4CFAAFED763
:1050D000C96A000E0224D96EDA6A060EDA2200C509
:1050E000DFF4022ACFA6EBD7FDD7C7C2C1F4CFAAFF
:1050F000FED7C96A000E0224D96EDA6A060EDA22D9
:1051000000C5DFF4022ACFA6DAD7FDD7000E0224AD
:10511000D96EDA6A060EDA2200C5DFF4022AD08AD6
:105120001100D09A000E0224D96EDA6A060EDA2235
:1051300000C5DFF442C602F541C601F51100F6C410
:10514000C9F2000E0224D96EDA6A060EDA2200C510
:10515000DFF4022A11000050410AD8B4B5D7020A80
:10516000D8B4C3D7120AD8B4D1D7020AD8B4D9D781
:10517000320AD8B4E4D7E5D71F0EF760E2D7CFA63E
:10518000FED7000E0224D96EDA6A060EDA2200C5B6
:10519000DFF4022ACFB6FED7D1C4EFF411000B6EB4
:1051A0000B50D8A406AE1AD003C507F504C508F500
:1051B00005C509F506C50AF5071E081E091E0A1EC3
:1051C000072A000E082209220A2207C50DF508C584
:1051D0000EF509C50FF50AC510F508D003C50DF584
:1051E00004C50EF505C50FF506C510F503500410EE
:1051F00005100610D8A409D0000E036E000E046E30
:10520000000E056E000E066E1200960E0C6E06D095
:105210000C2AD89010320F320E320D32000E0D14BF
:10522000076E000E0E14086E000E0F14096EFE0EAF
:1052300010140A6E0750081009100A10D8B40DD0C7
:10524000E7D70C2A010E0D26000E0E220F22102287
:10525000D89010320F320E320D32000E0D14076E40
:10526000000E0E14086E000E0F14096EFF0E1014BF
:105270000A6E0750081009100A10D8B407D0E1D7F9
:105280000C06D8900D360E360F3610360FBE03D0F2
:10529000020E0C60F5D70CA00F9ED8900C320CC5F6
:1052A00007F5086A096A0A6A07C50AF5096A086AF9
:1052B000076A07500D1208500E1209500F120A50BB
:1052C00010120B50D8A406AE01D0108E0DC503F5F8
:1052D0000EC504F50FC505F510C506F51200000E44
:1052E0002A14326E000E2B14336E800E2C14346E82
:1052F0007F0E2D14356E3250331034103510D8A473
:1053000008D0000E2A6E000E2B6E000E2C6E000EC2
:105310002D6E000E2E14326E000E2F14336E800E82
:105320003014346E7F0E3114356E32503310341019
:105330003510D8A408D0000E2E6E000E2F6E000E71
:10534000306E000E316E2DAE09D02A6C2B1ED8B0F7
:105350002B2A2C1ED8B02C2A800E2D5631AE09D007
:105360002E6C2F1ED8B02F2A301ED8B0302A800EB7
:105370003156000E2A1A000E2B1A000E2C1A800E1F
:105380002D1A000E2E1A000E2F1A000E301A800E43
:10539000311A2E502A5C2F502B5830502C58315037
:1053A0002D58D8B002D0D8901200D880120064C511
:1053B0000DF565C50EF566C50FF567C510F503C596
:1053C0000DF504C50EF505C50FF506C510F50DC59F
:1053D00007F50EC508F50FC509F510C50AF5180E35
:1053E00005D0D8900A32093208320732E82EF9D7B0
:1053F00007500B6E0C6A0B500C10D8A419D0D89023
:105400000D34076E0E34086E0F34096E10340A6EB8
:105410000750081009100A10D8A405D0000E046E19
:10542000020E036E1200000E046E030E036E1200D5
:105430000B280C10D8A41CD00DC507F50EC508F517
:105440000FC509F510C50AF5090ED89007360836BC
:1054500009360A36E82EF9D70750081009100A1045
:10546000D8A402D0010E01D0000E036E046A12000F
:10547000000E046E040E036E1200053406340C6E2A
:105480000C50D8A409D0000E036E000E046E000E5E
:10549000056E000E066E120003C507F504C508F57B
:1054A00005C509F506C50AF5200E05D0D8900A32C3
:1054B000093208320732E82EF9D707500B6E058EF5
:1054C000FF0E0316FF0E0416FF0E0516000E06163D
:1054D000960E0C5E0CAE0DD00C50800A970FD8A023
:1054E000D2D7D89006320532043203320C3EF9D7B7
:1054F0000DD01F0E0C6407D0C6D7D89003360436E3
:10550000053606360C060C50D8A4F7D70B50D8B485
:1055100008D0061E051E041E036C000E0422052280
:10552000062203C503F504C504F505C505F506C542
:1055300006F51200AE9AD150F66EE96ECFA6FED7F0
:10554000CFB6FED7D150006E3F0BF76EF750060F67
:10555000EA6E00BC10D01E0EF76404D00800F5C43B
:10556000C1F402D0EFC4C1F4CFAAFED7C96ACFB646
:10557000FED7C968110000AE1CD02CD0B7C4C1F44E
:10558000CFAAFED7C96ACFA6F4D7FDD7C7C2C1F448
:10559000CFAAFED7C96ACFA6ECD7FDD7D08A41C61D
:1055A00001F542C602F51100D09A1100F6C4C9F205
:1055B00011000050410AD8B4E1D7020AD8B4E6D7A6
:1055C000120AD8B4EBD7020AD8B4EED7320AD8A45C
:1055D0001100ECD71F0EF7601100CFA6FED7CFB693
:1055E000FED7D1C4EFF41100000E0B6E000E0A6E50
:1055F00003C5D9F404C5DAF4DFC4F6F4260EF76E59
:10560000000EF86E0800F5502A0AD8A42ED003C563
:10561000D9F404C5DAF4DF2A05C5D9F406C5DAF4ED
:10562000DFC407F5020EDE26DFC408F5000EDD221A
:1056300007C5D9F408C5DAF4DEC40AF5DDC40BF5F4
:1056400025D00A0E0A02F3C407F5F4C408F50B02CC
:10565000F3500826095007240A6E000E08200B6E2E
:1056600003C5D9F404C5DAF4DF2A03C5D9F404C5A7
:10567000DAF4DFC4F6F4260EF76E000EF86E0800BA
:10568000F550D00F096E090E0964DBD70AC503F582
:105690000BC504F5120006500710D8B404D006500C
:1056A0000710D8A404D0045015ECADF0120020EE81
:1056B00009F00650D9260750DA22DE50DE10D8B4A1
:1056C00016D020EE09F00650D9260750DA2210EE47
:1056D00002F00650E1260750E222DE50E65CE6507A
:1056E000800A0C6EDE50800A0C58D8B0120020EEF2
:1056F00002F00650D9260750DA22DEC408F5DDC4D0
:1057000009F506C5D9F407C5DAF4DEC40AF5DDC427
:105710000BF508500A24D96E09500B20DA6E04C527
:10572000DFF420EE02F00650D9260750DA22DE2AF6
:10573000000EDD221200000E03140B6E000E041486
:105740000C6E800E05140D6E7F0E06140E6E0B503F
:105750000C100D100E10D8A408D0000E036E000E11
:10576000046E000E056E000E066E000E07140B6E22
:10577000000E08140C6E800E09140D6E7F0E0A14B4
:105780000E6E0B500C100D100E10D8A408D0000E89
:10579000076E000E086E000E096E000E0A6E0750AE
:1057A00003180AE10850041807E10950051804E13C
:1057B0000A500618D8B402D0D8901200D88012002F
:1057C0006EA10AD016C50DF517C50EF514C50FF557
:1057D00015C510F5A6ECACF019AE04D0000E196E8C
:1057E000000E186E000E1C6E000E1B6E0CD0000E0C
:1057F000056E200E046E14C506F515C507F54BECB5
:10580000ABF01B4A1C2A18501B5C1C50800A1A6EF5
:105810001950800A1A58D8A0EAD705016EB11200B3
:1058200016C50DF517C50EF514C50FF515C510F500
:10583000A6ECACF0120006BE09D003C503F504C502
:1058400004F505C505F506C506F5120003C507F5FF
:1058500004C508F505C509F506C50AF5071E081EA5
:10586000091E0A1E072A000E082209220A2207C55D
:1058700003F508C504F509C505F50AC506F51200C6
:10588000000E2E1A000E2F1A000E301A800E311A3A
:105890002AC503F52BC504F52CC505F52DC506F560
:1058A0002EC507F52FC508F530C509F531C50AF530
:1058B000ACECA3F003C52AF504C52BF505C52CF502
:1058C00006C52DF5120005C50BF506C50CF503C57B
:1058D00009F504C50AF510D00BC5D9F40CC5DAF4E6
:1058E000DF500D6E0B4A0C2A09C5D9F40AC5DAF44B
:1058F0000DC5DFF4094A0A2A0706D8A008060728BA
:10590000EBE10828D8B41200E7D757C55AF50ED0F6
:1059100055C547F556C548F55A0E496E050E4A6EEF
:1059200058C54BF559C54CF573ECA6F05AC5F6F4BD
:10593000260EF76E000EF86E0800F5500009D8A488
:10594000E7D7000E566E000E556E1200000E136E55
:10595000000E126E0BD011C504F5056A0FC506F5D1
:1059600010C507F54BECABF0124A132A12500D2468
:10597000D96E13500E20DA6EDF50116E1150D8B46C
:105980001200E9D703C507F504C508F5052A050483
:10599000066E06C5F6F4260EF76E000EF86E07C505
:1059A000D9F408C5DAF4074A082A0800F5C4DFF478
:1059B000DF50D8B41200EAD70350041005100610C7
:1059C000D8B408D0000E031A000E041A000E051AEF
:1059D000800E061A03C503F504C504F505C505F5D3
:1059E00006C506F512005C0E0501EB6F050EEC6FA7
:1059F000000E556E000E566E5BC557F5EB0E586ED9
:105A0000050E596E85ECACF0120001EE60F15F0EF0
:105A1000EE6AE806FDE10401080E5D6F000E5E6FA0
:105A2000000E5F6F00017BEFA0F0036EB7A2FED700
:065A300003C5C9F21200DB
:025A380011005B
:020000040030CA
:080000008CFFFFF79FFFFFFFDB
:01000900FFF7
:00000001FF
